:020000040800F2
:1000000010040020D50000086B01000869010008F9
:1000100000000000000000000000000000000000E0
:100020000000000000000000000000006F01000858
:1000300000000000000000006D010008C901000878
:10004000E7000008E7000008E7000008E7000008F4
:10005000E7000008E7000008E7000008E7000008E4
:10006000E7000008E7000008E7000008E7000008D4
:10007000E7000008E7000008E7000008E7000008C4
:10008000E7000008E7000008E7000008E7000008B4
:10009000E7000008E7000008E7000008E7000008A4
:1000A000E7000008E7000008E7000008E700000894
:1000B000E7000008E7000008E7000008E700000884
:1000C0000348854600F03EF800480047B9020008A2
:1000D000100400200448804704480047FEE7FEE77C
:1000E000FEE7FEE7FEE7FEE735020008C100000874
:1000F00030B50B46014600202022012409E00D46C0
:10010000D5409D4205D31D469540491B2546954047
:1001100040191546521E002DF1DC30BD70B500248B
:100120002546002801DA01244042002901DA012590
:100130004942FFF7DDFFAC4200D04042002C00D026
:10014000494270BD064C0125064E05E0E36807CC28
:100150002B430C3C98471034B442F7D3FFF7B4FF5D
:10016000F803000818040008FEE77047704770475E
:10017000134911200860134841684160416841609B
:1001800041687B22D2039143416041680522D20439
:1001900011434160016801221206114301600168A8
:1001A0008901FCD5416889088900416041680222C3
:1001B0001143416041680907890F0229FAD170474C
:1001C000002002400010024030B51848FF24426869
:1001D0001749521EC82301344260521C10D10588B1
:1001E0006200002D1BD00588FF2D09D005886D0009
:1001F0006D1E45807D252D01456083608C618A627E
:100200004288002A0AD085686D1E85606D1C05D164
:100210004D6965404D61521E8360428030BD4D691D
:1002200055404D617D22D2004260E9E70000002088
:100230000008004810B5144801680122114301600C
:100240004168124A114041600168114A1140016041
:100250000168012292049143016041683F22120427
:1002600091434160C16A09090901C162016B094AF0
:1002700011400163416B49084900416300218160DD
:10028000FFF776FF10BD0000001002400CB8FF0819
:10029000FFFFF6FE2CFEFCFF02E008C8121F08C19B
:1002A000002AFAD170477047002001E001C1121FF7
:1002B000002AFBD1704700004648FF21408B4B319C
:1002C0004843FF212D31FFF713FF054673214843B3
:1002D0006421FFF723FF84B2284655214843642157
:1002E000FFF71CFF82B23C4841690123DB0419433C
:1002F00041613A490B680F252D04AB4305252D04B8
:100300005B190B60374B36495961374D0721EE6950
:100310003602360A8F073E43EE6100259D61196162
:10032000836945152B438361436B01273B4343633B
:10033000436B9B07FCD52D488368DB0703D083689C
:100340005B085B00836083680125ED072B438360B6
:100350008368002BFCDB83683B4383600368DB0717
:10036000F9D0C3680125ED032B43C360AB00836262
:1003700043690B4343611E498B68ED012B438B603E
:100380001A4E1C49403604250EE083682B438360D7
:1003900003685B07FCD53368A34205D933689342F1
:1003A00002D90B883B430B800B88002BEDD0816872
:1003B000490703D581681022114381608168C9060D
:1003C000FCD481680222114381608168C907FCD195
:1003D000FEE70000A0F7FF1F0010024000080048E1
:1003E0007FBB000000E000E004ED00E000240140DD
:1003F0000027014000000020180400080000002031
:100400000C00000098020008240400080C000020E2
:1004100004040000A802000800000000E803000037
:04042000C800000010
:04000005080000C12E
:00000001FF
