:020000040800F2
:10000000C009002065010008870100088901000877
:1000100000000000000000000000000000000000E0
:100020000000000000000000000000008B0100083C
:1000300000000000000000008D0100088111000890
:100040009101000891010008910100089101000848
:100050009101000891010008910100089101000838
:100060009101000891010008910100089101000828
:100070009101000891010008910100089101000818
:1000800091010008910100080000000091010008A2
:1000900091010008910100089101000891010008F8
:1000A000910100089101000891010008A9130008BE
:1000B000910100080000000091010008000000000C
:1000C00000F002F800F03EF80CA030C80838241800
:1000D0002D18A246671EAB4654465D46AC4201D180
:1000E00000F030F87E460F3E0FCCB6460126334274
:1000F00000D0FB1AA246AB4633431847B41A00009F
:10010000D41A0000103A02D378C878C1FAD852073E
:1001100001D330C830C101D504680C6070470000BD
:100120000023002400250026103A01D378C1FBD813
:10013000520700D330C100D50B6070471FB51FBDFB
:1001400010B510BD00F03DFD1146FFF7F7FF01F0BF
:1001500097FA00F055FD03B4FFF7F2FF03BC00F07F
:1001600057FD00000E4880F308880E480168090E0C
:100170000D4A914205D10D480D4901600D480E49C7
:1001800001600E480047FEE7FEE7FEE7FEE7FEE7F8
:10019000FEE700000A480B490B4A0C4B7047000071
:1001A000C0090020040000001F00000018100240D9
:1001B000010000000000014000000000C100000834
:1001C000C0030020C0090020C0050020C005002099
:1001D00001E004C0091F0429FBD28B0701D502806E
:1001E000801CC90700D00270704700290BD0C307DC
:1001F00002D00270401C491E022904D3830702D595
:100200000280801C891EE3E70022EEE70022DFE780
:10021000002203098B422CD3030A8B4211D3002303
:100220009C464EE003460B433CD4002243088B42DD
:1002300031D303098B421CD3030A8B4201D394466A
:100240003FE0C3098B4201D3CB01C01A524183095D
:100250008B4201D38B01C01A524143098B4201D317
:100260004B01C01A524103098B4201D30B01C01A42
:100270005241C3088B4201D3CB00C01A52418308BC
:100280008B4201D38B00C01A524143088B4201D3E9
:100290004B00C01A5241411A00D201465241104649
:1002A00070475DE0CA0F00D04942031000D34042BE
:1002B000534000229C4603098B422DD3030A8B42F4
:1002C00012D3FC22890112BA030A8B420CD3890192
:1002D00092118B4208D3890192118B4204D3890178
:1002E0003AD0921100E08909C3098B4201D3CB01B6
:1002F000C01A524183098B4201D38B01C01A52416B
:1003000043098B4201D34B01C01A524103098B426E
:1003100001D30B01C01A5241C3088B4201D3CB0059
:10032000C01A524183088B4201D38B00C01A52413C
:10033000D9D243088B4201D34B00C01A5241411A13
:1003400000D20146634652415B10104601D3404241
:10035000002B00D54942704763465B1000D34042F2
:1003600001B50020C046C04602BD704770477047C7
:100370000246C80FC00781434B0030B54B405B00BD
:100380009B0D20D01923DB06C91801231B059942B8
:1003900020DB0324A40704251346AB400BD3002B1A
:1003A00004D1EB0613409B00E34204D4012464070C
:1003B000002312195941FF231B0599420BD2C90092
:1003C0000143500F09E0CB0204D501430803024367
:1003D00005D0054830BDFF21C905084330BD08469A
:1003E00007210905884330BD0000C07FF0B5F94DF5
:1003F0000C091E092C402E402F468BB0A7437DD000
:10040000B543FCD0002E7AD0002CFCD00D465D40C8
:10041000ED0F2543AC1BFF25AD0464190894C502FC
:10042000440DC9022143500DDC0204430120C007E2
:1004300001430443D2020191200C110C00958C461B
:10044000010423468B430A9161460904E24D8A4325
:100450000991010A7D4449198039097805464D43BF
:1004600001266D18F605751B6943C90C640B891CC0
:100470004C436418B5012C1B250C2E04B4434C438B
:100480004D43210C691889090591009DE90701D0A8
:100490000121C90704912C4601996708CD072F4314
:1004A0004C08059DE10B4D432D0C294666467543CE
:1004B00002950D4645432E46029D7D1BB441009595
:1004C0000D465D4301942C0C2F040D465543AE465A
:1004D0002D0C3D43029503947546049C2D04641B2A
:1004E000049406D2029C039D641C0026754103956A
:1004F000029401AC70CC009F7D1B01E03EE162E103
:10050000B44109040095079101940599A408614339
:10051000090C0C464443650BE7040C4666467443DD
:10052000A646640B3C43039502947446049DE40480
:100530002C1B049406D2029C039D641C002675416A
:100540000395029401AC70CC009F7D1BB4410194D3
:100550000C465C430095650FE7000C465443A646E5
:10056000640F3C43039502947446049DE4002C1BE5
:10057000049406D2029C039D641C002675410395D9
:10058000029401AC70CC009F7D1BB441AE09AF0654
:10059000049DC900AD092F43049DA406AD06049532
:1005A000079D344369180791059DE10B4D432D0CC0
:1005B00029466646754302950D4645432E46029DE3
:1005C0007D1BB44100950D465D4301942C0C2F0416
:1005D0000D465543AE462D0C3D430295039475469A
:1005E000049C2D04641B049406D2029C039D641C8D
:1005F000002675410395029401AC70CC009F7D1BD1
:10060000B44101948C050694079C890A61180095F1
:100610000791019C0599A4086143090C0D464543C7
:10062000680BEF040D46644665436C0B3C43049F26
:10063000ED047D1BAC4602D20025641C6841009E7F
:10064000019D371B85410846584301950C46460FCE
:10065000C5005443600F28436546E4002C1B02D2BA
:100660000025401C6E41019D3F1AB5412846BD0939
:10067000800628438446A009BF064E020699A406B8
:1006800076180743079D002068410A99079019438F
:100690000020099B00906046FF1913434041E20F80
:1006A00064003A43A4460446D71A8C41A04203D9B9
:1006B0000120009020463A46C70F941840416246F8
:1006C000D20F2243644664000494009CBE4664003A
:1006D000D71AA446044602978C417746002F01D1D1
:1006E000A04204D96046401C8446029A2046C40FAA
:1006F000A64694184041049A0546D20F2243644608
:100700006400D31A8D417146002901D1A84202D953
:1007100028461A46641C10430122002800D01643C4
:1007200061020020079B891904465C410223002CCA
:1007300002DB491813466441089DCE0A2D145D1949
:100740004B056705E10A2C050D1908993E43C907B9
:100750006940002B08D0934006D30022761C5141FB
:10076000002B01D1760876001C4A002D43DB154290
:1007700041D0AA433FD030460BB0F0BD06180D461D
:100780004D41174C7642AC411AD395181C465C413A
:10079000134A6D42A24113D3012252054C00D442A8
:1007A0000AD15C00D4420BD04B4002D592021143D7
:1007B000E2E749004908DFE75940C90FC90718E0D7
:1007C00000200849D8E7054801420DD10342F7D07F
:1007D000F2E700000000FF07D81600000000F07FDD
:1007E0000000E0FF0000F87F114859400143C012AB
:1007F00041400020C0E70123089A9B069A4205DC8D
:10080000032252078918C90FC907B5E70522520705
:100810008918074A1143D2125140ADE770B5154609
:100820001C4602460B4628462146FFF7DFFD70BDF9
:10083000FFFFFF7F1F22030C02D10F22000402D012
:10084000030E03D004E00020014670470002083A7E
:10085000030F01D10001121F830F01D18000921EEE
:10086000002801DB4000521E120551184205C0123B
:10087000411810467047C10FC90700D040420122FD
:1008800092071143D6E701218907D3E7F0B58B4CD6
:100890000F09254689B0BD437BD01D092646AE43CE
:1008A000FAD00E465E402740F60F3E43254071D0F9
:1008B00024012142FBD0FF24AD19A4042D1B039574
:1008C00001252D05DB02DB0AC9022B43C90A294396
:1008D0001E010901040F130F050121431701880BA5
:1008E000820391432D098C46A90B1E438A0395432D
:1008F000B30B9A0396433F09BA0B9403A74302969E
:100900002E467E430497B6464E19D7190C460196DB
:10091000544305977E43371B7646BF1B3601B646C8
:10092000BE0B361900967646BC043719009C01D3DD
:10093000641C00946400002F01D001263443029E01
:10094000049F754366467E430496760034196E0014
:1009500034190094029C019E1C196643751BAE4617
:10096000069465464519059C05956C4359437546A3
:100970000891691A0191049E01465143A41B0491F8
:10098000611A009C0791E10605D06109012211431B
:1009900002E072E06EE06109089D00272C0A2D0636
:1009A0006918049D7C412A0A2D066918019D62413F
:1009B000AC0DAD026D185441079A910D9202551974
:1009C0006141029A644658435443069B059A5A4330
:1009D000121A131B9A0E9B015B187A41010B00053A
:1009E000C3185141220A200644195A419A4200D2A2
:1009F000491C01204002814203D315230226F643FD
:100A000002E014230326F6432020C51AA940174606
:100A1000AF40DA400A4320460399D84009147318BE
:100A200019055118039A3843D2075140AC4009D0F8
:100A30000122944006D30022401C5141002C01D1D8
:100A4000400840001E4A934212D3012203989206A6
:100A5000904207DB0520400709181A480143C012DD
:100A6000414004E0032040070818C10FC9070020D7
:100A700009B0F0BD0020F107FAE705180C464C411B
:100A800011486D42A04115D394181A465A410E4898
:100A9000644290410ED301204A004005824209D3AE
:100AA0005A00824206D35940C90F084AC90700209C
:100AB0001143DDE700200649DAE700000000FF07E8
:100AC000FE070000FFFFFF7F0000E0FF0000F07F57
:100AD0000000F87F0121C9050123411842001B06CF
:100AE000D3185B0E0AD0C1100722D206891840071E
:100AF0005242D14201D5520089187047090208D5E7
:100B00000146002A03D0C10FC907002070471046D4
:100B10007047420202D000200249704707210905B0
:100B20000143F4E70000F87F0102C21504D001235D
:100B3000DB071943002A0ADB9E239A1A02D40846CF
:100B4000D0407047FF2241001206914201D9002097
:100B50007047C017C04370471F22030C02D10F22F9
:100B600000041CD0030E01D10002083A030F01D18A
:100B70000001121F830F01D18000921E002801DBAB
:100B80004000521ED20551180212511819229040ED
:100B900004D3491C002801D1490849000846704780
:100BA000C10FC90700D04042012292071143D3E789
:100BB00001218907D0E7000000487047600300204A
:100BC00070477546FFF7F8FFAE4605006946534685
:100BD000C008C000854618B020B5FFF7DBFA60BC3E
:100BE00000274908B6460026C0C5C0C5C0C5C0C557
:100BF000C0C5C0C5C0C5C0C5403D49008D46704791
:100C000010B50446C046C0462046FFF7A4FA10BD02
:100C100001491820ABBEFEE72600020002494968E0
:100C20000143014A5160704700100240024949687F
:100C30000143014A5160704700100240FEB5002494
:100C400000250026002700BF19E00A20604385B276
:100C500029467D20C00000F09EF807462846FFF791
:100C6000A7FF3946009000F0A5FE0190FFF75CFF5A
:100C700086B2012E01DB2046FEBD601C84B27D20C1
:100C8000C0008442E1DB0120F6E7000017B581B027
:100C900004460021009102990398FFF7B9FAC1B206
:100CA00000916A4603A902A800F09EF800F014F82B
:100CB000112007490860012C01D100F0A1F8002C97
:100CC00001D100F0F7F80349039808601FBD000048
:100CD000002002400C000020194800680121084350
:100CE000174908600846406816490840144948609A
:100CF0000846006814490840114908600846006821
:100D00000121890488430E490860084640683F2154
:100D1000090488430A4948600846C06A000900017E
:100D2000C8620846006BFF215431884304490863B8
:100D30000846406B400840004863002088607047C8
:100D4000001002400CB8FF08FFFFF6FEFFB5054695
:100D50000E461746002400BF1AE0A1006858012182
:100D600000F092FAA1006858394600F041F9A1005C
:100D70006858039900F0F0F9A1006858099900F04B
:100D800060F9A10068580A9900F046F9601CC4B2E5
:100D9000B442E2DBFFBDF0B587B007460E463846E9
:100DA000FFF706FF0190FFF795FE0591049030468E
:100DB000FFF769FD03910290059B049AFFF716FB6C
:100DC00004460D4622462B4620462946FFF75EFD87
:100DD00022462B4603910290FFF758FD059104909F
:100DE000FFF7C6FA07B0F0BD10B5044C03682360E6
:100DF0000B6863601378237210BD00003C01002073
:100E000008B5002000902948006801210904084322
:100E10002649086002E00098401C009023480068C2
:100E2000012149040840002804D105210903009844
:100E30008842F0D11D48006801214904084000287B
:100E400031D00020FFF7EAFE0020FFF7EFFE174841
:100E500040687F21C903884314494860012000F09D
:100E600051F91348007A012819DD012000F052F9E8
:100E70000F49087A00F034F90C480068012109068E
:100E800008430A49086000BF084800680121490674
:100E900008400028F8D0022000F0E6F805E0012024
:100EA00000F0E2F801E000F005F808BD0010024093
:100EB0003C01002010B50020FFF7B0FE0020FFF736
:100EC000B5FE164840687F21C9038843134948602E
:100ED000012000F017F91248007A012819DD0020DE
:100EE00000F018F90E49087A00F0FAF80B4800688B
:100EF0000121090608430949086000BF0748006846
:100F00000121490608400028F8D0022000F0ACF882
:100F100002E0002000F0A8F810BD00000010024020
:100F20003C01002010B5002819DA1A4A03071B0FEC
:100F3000083B9B089B00D2588307DC0EFF23A3408D
:100F40009A438B071B0E8407E40EA3401A43114BF0
:100F50000407240F083CA408A4001A5118E00E4A04
:100F600003231B02D21883089B00D2588307DC0E90
:100F7000FF23A3409A438B071B0E8407E40EA34074
:100F80001A43054B032424021B198408A4001A5198
:100F900010BD00001CED00E000E100E070B5002293
:100FA000002304796407E50E0C46AC402246046831
:100FB00020340579ED10AD00645905796D07EE0E0A
:100FC0000F25B540AC43056820350679F610B6000C
:100FD000AC51046820340579ED10AD006459144318
:100FE0002346046820340579ED10AD00635170BDCF
:100FF00010B50268126803795C000323A3409A438A
:1010000003681A600268126803795C000B46A3400B
:101010001A4303681A6010BD10B5002908D1026890
:10102000928804790123A3409A4303689A8007E0D9
:101030000268928804790123A3401A4303689A80C6
:1010400010BD10B50A460368D96803795C00032314
:10105000A3400C469C43214603795C001346A34001
:1010600019430368D96010BD012812D11B49496892
:1010700002229143194A51601146496801221143E5
:10108000164A516000BF154949680C2211400429D5
:10109000F9D100280CD111494968890889000F4A03
:1010A000516000BF0D4949680C2211400029F9D157
:1010B000022812D10949496849084900074A516084
:1010C0001146496802221143044A516000BF034996
:1010D00049680C2211400829F9D1704700100240DC
:1010E00001280ADD102808DC04494968821E9200A4
:1010F000034B9A581143014A516070470010024057
:10110000AC1A0008C106C90E491E014AD1627047D7
:101110000010024001280BD10E4949680204114316
:101120000C4A516011464968C2039143094A516013
:1011300000280DD1074949680122D2031143054A0D
:10114000516011464968012212049143014A5160DD
:10115000704700000010024010B5026892680379E1
:101160005C000323A3409A4303689A600268926874
:1011700003795C000B46A3401A4303689A6010BDD4
:10118000002022E00C214143114A8918097A0029E4
:101190001AD00C21414389188988491E8AB20C2132
:1011A00041430B4BC9188A80002A0DD10C214143C1
:1011B0001A468918CA880C214143C9188A8001221D
:1011C0000C214143C9184A72401C0F28DADB7047D2
:1011D0008800002070B5044662B6002C00D170BDB6
:1011E00000201649086016480460B4211548FFF72E
:1011F0000DF800F03FFA06462146FFF709F80546CC
:10120000681E1149884200D90CE0681E0F494861E8
:101210000321081FFFF786FE00200C498861072084
:10122000086100BF0020C043C206D20E01219140D8
:10123000074A116000BF00BFD1E70000080000208E
:101240000400002088000020FFFFFF0000E000E015
:1012500000E100E010B5002411E00C2060430949D2
:101260004018407A002809D000210C206043054A2C
:10127000801841720C21614350588047641C0F2C28
:10128000EBDB10BD88000020002940D00923DB06DD
:1012900002689A4206D13E4A526901235B041A430E
:1012A0003B4B5A613B4B02689A4205D1384A52691E
:1012B0001B021A43364B5A61374B02689A4205D1DA
:1012C000334A52691B021A43314B5A61334B02684D
:1012D0009A4206D12E4A526901231B051A432C4B10
:1012E0005A612F4B02689A4205D1294A52695B0222
:1012F0001A43274B5A612B4B02689A4247D1244A22
:10130000526901239B051A43214B5A613FE009238F
:10131000DB0602689A4206D11D4A526901235B042A
:101320009A431B4B5A611B4B02689A4205D1184ADB
:1013300052691B029A43164B5A61174B02689A4234
:1013400005D1134A52691B029A43114B5A61134B40
:1013500002689A4206D10E4A526901231B059A433C
:101360000B4B5A610E4B02689A4205D1084A5269EA
:101370005B029A43064B5A610A4B02689A4206D1B5
:10138000034A526901239B059A43014B5A617047F6
:10139000001002400004004800080048000C00480B
:1013A000001000480014004810B53349334800F0DD
:1013B00079F801282DD13148C0690007000F0028B5
:1013C00024D12E4800F0B6F8C1B22D480488601C24
:1013D0002B4A10802B48015510460088FF2101310F
:1013E000884202D100201146088027480088401C0E
:1013F00080B225490880FF210131884209D10020AF
:101400002149088001202149087002E01B4800F0B2
:1014100091F81F49194800F045F8012802D11748F2
:1014200000F088F81B49154800F03CF8012821D14C
:1014300019480088002818D017480088401E16490F
:10144000088016480488601C144A10801448015D06
:101450000A4800F074F811480088FF2101318842E1
:1014600008D100200D49088004E000220949034802
:1014700000F03FF810BD00000501050000380140F4
:10148000220000206001002026000020280000200B
:1014900000030300070107002E0000202C0000209D
:1014A0006002002070B502460B4600240021002592
:1014B00000201E04350ED9B201268E403146012D82
:1014C00002D11668314006E0022D02D15668314043
:1014D00001E0966831401C0C0126A6403446D669CE
:1014E0003440002903D0002C01D0012000E000206E
:1014F00070BDF8B5034600240026009600250020A4
:1015000018460E04340ECEB200960127009EB74056
:101510003D46022C01D1001D02E0032C00D1083011
:10152000002A03D006682E43066002E00668AE4338
:101530000660F8BD0146888CC005C00D7047CA051D
:10154000D20D0285704700003848806901214902A8
:1015500008433649886108464068091508433349FD
:10156000486033488068C007C00F002805D0304865
:101570008068400840002E4988602D48806801211D
:10158000C90708432A49886000BF29488068C00FFE
:10159000C0070028F9D100BF254880680121084311
:1015A0002349886008460068C007C00F0028F3D0B0
:1015B0000846C068491408431D49C860FF2014301C
:1015C000886208464069072108431949486119485B
:1015D00080680321890508431649886013484069DB
:1015E00001210843114948611148C068032108439B
:1015F0000F49C8600E4840300F4908610F484861E4
:101600000420C860084680682D21490108430A4922
:1016100088600846806801210843074988600448BB
:101620008068042108430249886070470010024026
:1016300000240140002701400000024080000020FB
:1016400070B50125094840684005440F042020403A
:10165000002804D0A107890F0220884005462946AA
:1016600003480068FEF7D4FD70BD00000010024082
:101670000C00002001480068704700000C000020AA
:101680001CB5194A19490020FFF700FB7D20C00056
:10169000FFF7A0FD00200090022303220421019007
:1016A0001348FFF753FB002000900223024601215C
:1016B00001901048FFF74AFBFFF746FF002000F0BB
:1016C0002FF86321002000F04BF90BE0FFF7C2FD7B
:1016D00009490988094A514308460949FEF7A2FD0C
:1016E00008490880F2E70000006CDC0200127A0072
:1016F0003C0000205400002080000020E40C00008A
:10170000FF0F00005A0000200146022901DB0020E3
:10171000704724204843014A8018F9E7641A0008FA
:1017200070B505462846FFF7EFFF0446002C00D1B0
:1017300070BD204600F0DEF8204600F002F800BF41
:10174000F6E710B50446012120461830FFF79CFD4E
:10175000022120461830FFF74BFC032120461830A9
:10176000FFF7FAFC002120461830FFF76AFC002141
:1017700020461830FFF750FC217D20461830FFF737
:101780000DFC2068008840084000216808806068DF
:10179000012806D0022828D003284CD0042823D1C1
:1017A00070E02068008B70218843216808832068DE
:1017B000008B60210843216808832020005D0028F9
:1017C00006D12068008C022108432168088405E0C6
:1017D0002068008C02218843216808842068008CDE
:1017E000012108432168088475E02068008B0721E7
:1017F00009038843216808832068008B032149037B
:101800000843216808832020005D002806D1206855
:10181000008C202108432168088405E02068008CA2
:1018200020218843216808842068008C1021084307
:10183000216808844FE02068808B702188432168EC
:1018400088832068808B602108432168888320205A
:10185000005D002807D12068008C0121490208435F
:101860002168088406E02068008C01214902884331
:10187000216808842068008CFF2101310843216819
:10188000088428E02068808B0721090388432168A9
:1018900088832068808B032149030843216888835B
:1018A0002020005D002807D12068008C0121490319
:1018B00008432168088406E02068008C0121490360
:1018C0008843216808842068008C012109030843AB
:1018D0002168088400BF00BF0021204600F051F8B5
:1018E000012021688882206800880121084321683E
:1018F000088010BD70B50446FFF7A2FE05462069BA
:101900000068E16808432169086013482168C862DB
:10191000411C2846FEF77CFC06467D21C900FEF7E7
:1019200077FC401E21680885206800880121084353
:1019300021680880207A002808D0206840308088FC
:101940000121C9030843216840318880FFF776F9F7
:101950000249088070BD0000E7030000000000207D
:10196000F8B506460C4627463046FFF7CDFE05463D
:10197000002D00D1F8BD3946284600F002F800BF1E
:10198000F8E74268012A06D0022A07D0032A08D0C5
:10199000042A0CD108E00268516308E002689163F0
:1019A00005E00268D16302E00268116400BF00BF75
:1019B0007047000070B5420064414B005C41120E5C
:1019C00039D01B0E38D0FF2A3CD0FF2B3AD0400232
:1019D0004902400A490A060045184E43000A090A0E
:1019E000D2184843ED017F3A0104731A4019190CCB
:1019F0004318990F04D001215B0849075B1A521C58
:101A0000D80904D3401CF50301D19D0607D0FF2A55
:101A100008D2D50506D0E4072043401970BD012542
:101A2000A843F4E7002A01DCE00770BD2402FF2090
:101A30002043C00570BD1B0EFF2A03D0FF2B01D031
:101A4000E00770BDFF2645003606B54206D84D00BA
:101A5000B54203D8D218FF2A00D0E7E7004870BD8E
:101A60000000C07F000400400400000000000000EF
:101A7000020000001C1002400100000000040048A9
:101A8000010000000100000000040040030000000D
:101A900000000000020000001C10024001000000D5
:101AA00000040048000000000000000000000000EA
:101AB000000004000000080000000C0000001000FE
:101AC000000014000000180000001C0000002000AE
:101AD000000024000000280000002C00000030005E
:101AE0000000340000003800000000480200000040
:101AF0000000004803000000000000480000000053
:101B00000000004801000000000000480400000040
:101B10000004004800000000000000480D00000024
:101B2000000000480E00000000080048000000000F
:101B300080807F7E7D7C7B7A79787776767574730A
:101B4000727171706F6E6E6D6C6C6B6A6A696868C9
:101B5000676666656464636362616160605F5F5E5F
:101B60005E5D5D5C5C5B5B5A5A59595858575756D5
:101B7000565555555454535352525251515050503A
:101B80004F4F4F4E4E4D4D4D4C4C4C4B4B4B4A4A8C
:101B90004A494949484848474747474646464545D0
:101BA0004544444444434343434242424241414109
:101BB000D01B00080000002088000000040100087D
:101BC000581C000888000020380900002001000887
:101BD00000000000000000000000000000127A0079
:101BE00000000000000000000000000000000000F5
:101BF00008000000000000000000000000000000DD
:101C000000000000E81A0008F01A0008F81A00089E
:101C1000001B0008081B0008101B0008181B000808
:101C2000201B0008281B0008000000000000000026
:101C300000000000000000000000000000000000A4
:101C40000000000000000000000000000000000094
:081C500000000000000000008C
:04000005080000C12E
:00000001FF
