:020000040800F2
:10000000480C002051010008730100087501000828
:1000100000000000000000000000000000000000E0
:100020000000000000000000000000007701000850
:10003000000000000000000079010008611C0008B9
:100040007D0100087D0100087D0100087D01000898
:100050007D0100087D0100087D0100087D01000888
:100060007D0100087D0100087D0100087D01000878
:100070007D0100087D0100087D0100087D01000868
:100080007D0100087D010008000000007D010008DE
:100090007D0100087D0100087D0100087D01000848
:1000A0007D0100087D0100087D0100081D1F00087A
:1000B0007D010008000000007D0100080000000034
:1000C00000F002F800F034F80CA030C8083824180A
:1000D0002D18A246671EAB4654465D46AC4201D180
:1000E00000F026F87E460F3E0FCCB646012633427E
:1000F00000D0FB1AA246AB4633431847482E0000F7
:10010000682E00000023002400250026103A01D3A9
:1001100078C1FBD8520700D330C100D50B607047BF
:100120001FB50098019900F08CFD1FBD10B510BDE2
:1001300000F007FE1146FFF7F3FF02F0B9FB00F0F5
:100140001FFE03B4FFF7F2FF03BC00F04FFE0000F8
:100150000E4880F308880E480168090E0D4A914246
:1001600005D10D480D4901600D480E4901600E484A
:100170000047FEE7FEE7FEE7FEE7FEE7FEE70000DA
:100180000A480B490B4A0C4B70470000480C0020F2
:10019000040000001F0000001810024001000000D1
:1001A0000000014000000000C100000848060020D7
:1001B000480C0020480800204808002070B506467A
:1001C00000F022FD056830460B30C408E400B4425C
:1001D00001D8002070BD68682A46002818D0016840
:1001E000A14211D30B46214608318B4208D3436804
:1001F00001194B6003681B1B0B605160046001E038
:1002000041685160001D70BD024640680028E6D17B
:100210002146284600F000FD0028DCD170BD01E039
:1002200004C0091F0429FBD28B0701D50280801C62
:10023000C90700D00270704700290BD0C30702D055
:100240000270401C491E022904D3830702D5028094
:10025000801C891EE3E70022EEE70022DFE7002290
:1002600003098B422CD3030A8B4211D300239C46F3
:100270004EE003460B433CD4002243088B4231D36B
:1002800003098B421CD3030A8B4201D394463FE0FF
:10029000C3098B4201D3CB01C01A524183098B425F
:1002A00001D38B01C01A524143098B4201D34B0148
:1002B000C01A524103098B4201D30B01C01A5241AB
:1002C000C3088B4201D3CB00C01A524183088B4232
:1002D00001D38B00C01A524143088B4201D34B001B
:1002E000C01A5241411A00D201465241104670478D
:1002F0005DE0CA0F00D04942031000D34042534092
:1003000000229C4603098B422DD3030A8B4212D351
:10031000FC22890112BA030A8B420CD38901921183
:100320008B4208D3890192118B4204D389013AD0C0
:10033000921100E08909C3098B4201D3CB01C01A95
:10034000524183098B4201D38B01C01A52414309A8
:100350008B4201D34B01C01A524103098B4201D396
:100360000B01C01A5241C3088B4201D3CB00C01A03
:10037000524183088B4201D38B00C01A5241D9D21B
:1003800043088B4201D34B00C01A5241411A00D29C
:100390000146634652415B10104601D34042002B98
:1003A00000D54942704763465B1000D3404201B517
:1003B0000020C046C04602BD70477047704700002D
:1003C0000246C80FC00781434B0030B54B405B006D
:1003D0009B0D20D01923DB06C91801231B05994268
:1003E00020DB0324A40704251346AB400BD3002BCA
:1003F00004D1EB0613409B00E34204D401246407BC
:10040000002312195941FF231B0599420BD2C90041
:100410000143500F09E0CB0204D501430803024316
:1004200005D0054830BDFF21C905084330BD084649
:1004300007210905884330BD0000C07FF0B5F94DA4
:100440000C091E092C402E402F468BB0A7437DD0AF
:10045000B543FCD0002E7AD0002CFCD00D465D4078
:10046000ED0F2543AC1BFF25AD0464190894C502AC
:10047000440DC9022143500DDC0204430120C00792
:1004800001430443D2020191200C110C00958C46CB
:10049000010423468B430A9161460904E24D8A43D5
:1004A0000991010A7D4449198039097805464D436F
:1004B00001266D18F605751B6943C90C640B891C70
:1004C0004C436418B5012C1B250C2E04B4434C433B
:1004D0004D43210C691889090591009DE90701D058
:1004E0000121C90704912C4601996708CD072F43C4
:1004F0004C08059DE10B4D432D0C2946664675437E
:1005000002950D4645432E46029D7D1BB441009544
:100510000D465D4301942C0C2F040D465543AE4609
:100520002D0C3D43029503947546049C2D04641BD9
:10053000049406D2029C039D641C00267541039519
:10054000029401AC70CC009F7D1B01E03EE162E1B2
:10055000B44109040095079101940599A4086143E9
:10056000090C0C464443650BE7040C46664674438D
:10057000A646640B3C43039502947446049DE40430
:100580002C1B049406D2029C039D641C002675411A
:100590000395029401AC70CC009F7D1BB441019483
:1005A0000C465C430095650FE7000C465443A64695
:1005B000640F3C43039502947446049DE4002C1B95
:1005C000049406D2029C039D641C00267541039589
:1005D000029401AC70CC009F7D1BB441AE09AF0604
:1005E000049DC900AD092F43049DA406AD060495E2
:1005F000079D344369180791059DE10B4D432D0C70
:1006000029466646754302950D4645432E46029D92
:100610007D1BB44100950D465D4301942C0C2F04C5
:100620000D465543AE462D0C3D4302950394754649
:10063000049C2D04641B049406D2029C039D641C3C
:10064000002675410395029401AC70CC009F7D1B80
:10065000B44101948C050694079C890A61180095A1
:100660000791019C0599A4086143090C0D46454377
:10067000680BEF040D46644665436C0B3C43049FD6
:10068000ED047D1BAC4602D20025641C6841009E2F
:10069000019D371B85410846584301950C46460F7E
:1006A000C5005443600F28436546E4002C1B02D26A
:1006B0000025401C6E41019D3F1AB5412846BD09E9
:1006C000800628438446A009BF064E020699A40668
:1006D00076180743079D002068410A99079019433F
:1006E0000020099B00906046FF1913434041E20F30
:1006F00064003A43A4460446D71A8C41A04203D969
:100700000120009020463A46C70F941840416246A7
:10071000D20F2243644664000494009CBE466400E9
:10072000D71AA446044602978C417746002F01D180
:10073000A04204D96046401C8446029A2046C40F59
:10074000A64694184041049A0546D20F22436446B7
:100750006400D31A8D417146002901D1A84202D903
:1007600028461A46641C10430122002800D0164374
:1007700061020020079B891904465C410223002C7A
:1007800002DB491813466441089DCE0A2D145D19F9
:100790004B056705E10A2C050D1908993E43C90769
:1007A0006940002B08D0934006D30022761C5141AB
:1007B000002B01D1760876001C4A002D43DB154240
:1007C00041D0AA433FD030460BB0F0BD06180D46CD
:1007D0004D41174C7642AC411AD395181C465C41EA
:1007E000134A6D42A24113D3012252054C00D44258
:1007F0000AD15C00D4420BD04B4002D59202114387
:10080000E2E749004908DFE75940C90FC90718E086
:1008100000200849D8E7054801420DD10342F7D02E
:10082000F2E700000000FF071C2A00000000F07F34
:100830000000E0FF0000F87F114859400143C0125A
:1008400041400020C0E70123089A9B069A4205DC3C
:10085000032252078918C90FC907B5E705225207B5
:100860008918074A1143D2125140ADE770B51546B9
:100870001C4602460B4628462146FFF7DFFD70BDA9
:10088000FFFFFF7F1F22030C02D10F22000402D0C2
:10089000030E03D004E00020014670470002083A2E
:1008A000030F01D10001121F830F01D18000921E9E
:1008B000002801DB4000521E120551184205C012EB
:1008C000411810467047C10FC90700D040420122AD
:1008D00092071143D6E701218907D3E7F0B58B4C86
:1008E0000F09254689B0BD437BD01D092646AE437E
:1008F000FAD00E465E402740F60F3E43254071D0A9
:1009000024012142FBD0FF24AD19A4042D1B039523
:1009100001252D05DB02DB0AC9022B43C90A294345
:100920001E010901040F130F050121431701880B54
:10093000820391432D098C46A90B1E438A039543DC
:10094000B30B9A0396433F09BA0B9403A74302964D
:100950002E467E430497B6464E19D7190C4601968B
:10096000544305977E43371B7646BF1B3601B64678
:10097000BE0B361900967646BC043719009C01D38D
:10098000641C00946400002F01D001263443029EB1
:10099000049F754366467E430496760034196E00C4
:1009A00034190094029C019E1C196643751BAE46C7
:1009B000069465464519059C05956C435943754653
:1009C0000891691A0191049E01465143A41B0491A8
:1009D000611A009C0791E10605D0610901221143CB
:1009E00002E072E06EE06109089D00272C0A2D06E6
:1009F0006918049D7C412A0A2D066918019D6241EF
:100A0000AC0DAD026D185441079A910D9202551923
:100A10006141029A644658435443069B059A5A43DF
:100A2000121A131B9A0E9B015B187A41010B0005E9
:100A3000C3185141220A200644195A419A4200D251
:100A4000491C01204002814203D315230226F643AC
:100A500002E014230326F6432020C51AA9401746B6
:100A6000AF40DA400A4320460399D840091473186E
:100A700019055118039A3843D2075140AC4009D0A8
:100A80000122944006D30022401C5141002C01D188
:100A9000400840001E4A934212D301220398920656
:100AA000904207DB0520400709181A480143C0128D
:100AB000414004E0032040070818C10FC907002087
:100AC00009B0F0BD0020F107FAE705180C464C41CB
:100AD00011486D42A04115D394181A465A410E4848
:100AE000644290410ED301204A004005824209D35E
:100AF0005A00824206D35940C90F084AC90700204C
:100B00001143DDE700200649DAE700000000FF0797
:100B1000FE070000FFFFFF7F0000E0FF0000F07F06
:100B20000000F87F0121C9050123411842001B067E
:100B3000D3185B0E0AD0C1100722D20689184007CD
:100B40005242D14201D5520089187047090208D596
:100B50000146002A03D0C10FC90700207047104684
:100B60007047420202D00020024970470721090560
:100B70000143F4E70000F87F0102C21504D001230D
:100B8000DB071943002A0ADB9E239A1A02D408467F
:100B9000D0407047FF2241001206914201D9002047
:100BA0007047C017C04370471F22030C02D10F22A9
:100BB00000041CD0030E01D10002083A030F01D13A
:100BC0000001121F830F01D18000921E002801DB5B
:100BD0004000521ED205511802125118192290409D
:100BE00004D3491C002801D1490849000846704730
:100BF000C10FC90700D04042012292071143D3E739
:100C000001218907D0E7000000487047EC0500206B
:100C1000704770477047704738B504460A46002051
:100C20006946C046C046002805D0024620460099C5
:100C300000F066F8012038BD10B5012000F07AF808
:100C400010BDF8B5C046C046054600200C46102031
:100C5000C0460646A819A0420DD932466946002072
:100C6000C046C046070001D100F064F80098A042D9
:100C700000D00546C419FFF7C7FFF61D07460560FB
:100C8000F008C0004619284600F008F8B44204D025
:100C900031463868A21B00F033F8F8BD002101602E
:100CA0004160806070471020704770B50446051F92
:100CB000FFF7AAFF0068002C1AD0446801E0204624
:100CC0006468002C01D0AC42F9D301680A18AA422A
:100CD00004D12A6805468918016000E0456028684B
:100CE0004119A14205D161686960216840182860F6
:100CF00070BD6C6070BD000000487047E4050020C6
:100D000010B50346406801E003464068002801D062
:100D10008842F9D31868C3188B4206D0CB1CD80878
:100D2000C000001D411A521A0146081D0A60FFF753
:100D3000BCFF10BD10B500F031F800F029F810BD6F
:100D400070477546FFF7D8FFAE4605006946534623
:100D5000C008C000854618B020B5FFF711FA60BC86
:100D600000274908B6460026C0C5C0C5C0C5C0C5D5
:100D7000C0C5C0C5C0C5C0C5403D49008D4670470F
:100D800010B50446C046C0462046FFF7DAF910BD4C
:100D900010B5002801D000F029F810BD10B50128C9
:100DA00005D0002103A000F027F8012010BD09A103
:100DB000F8E7000053494752544D454D3A204F75CE
:100DC00074206F662068656170206D656D6F727943
:100DD000000000003A2048656170206D656D6F72FB
:100DE0007920636F72727570746564000149182010
:100DF000ABBEFEE72600020070B505460C460A2091
:100E000000E06D1C00F012F8002D06D028780028B4
:100E1000F7D102E0641C00F009F8002C02D0207821
:100E20000028F7D10A2000F001F870BD08B5694626
:100E300008700320ABBE08BD70B58C180578401C47
:100E40006B075B0F01D10378401C2A1106D1027891
:100E5000401C03E00678401C0E70491C5B1EF9D153
:100E60002B0705D40023521E0DD40B70491CFAE742
:100E70000378401CCB1A921C03E01D780D70491CAE
:100E80005B1C521EF9D5A142D8D3002070BD0000D2
:100E9000024949680143014A51607047001002400D
:100EA000024949680143014A5160704700100240FD
:100EB000FEB5002400250026002700BF19E00A2007
:100EC000604385B229467D20C00000F011F9074635
:100ED0002846FFF795FE3946009001F0E1FE0190AB
:100EE000FFF74AFE86B2012E01DB2046FEBD601CE4
:100EF00084B27D20C0008442E1DB0120F6E7704728
:100F000017B581B004460021009102990398FFF7BC
:100F1000A6F9C1B200916A4603A902A800F012F92D
:100F200000F014F8112007490860012C01D100F0ED
:100F300015F9002C01D100F06BF903490398086002
:100F40001FBD000000200240380000201948006842
:100F500001210843174908600846406816490840BF
:100F6000144948600846006814490840114908605F
:100F7000084600680121890488430E490860084634
:100F800040683F21090488430A4948600846C06A0E
:100F900000090001C8620846006BFF2154318843F4
:100FA000044908630846406B40084000486300203D
:100FB00088607047001002400CB8FF08FFFFF6FE83
:100FC000FFB505460E461746002400BF1AE0A100F3
:100FD0006858012100F008FFA1006858394600F068
:100FE000A5FBA1006858039900F026FEA1006858EF
:100FF000099900F0D5FBA10068580A9900F0BBFBE5
:10100000601CC4B2B442E2DBFFBD0000002100203E
:1010100000BF0CE01D4A5268525C002A05D0012234
:101020008A40024317231A4010464A1CD1B20829AD
:10103000F0DB164A5268D278002A05D040221043CD
:10104000082302469A431046104A52689279002AB1
:1010500005D008221043402302469A4310460B4A0B
:1010600052685279002A05D080221043202302467C
:101070009A431046054A5268D279002A05D02022A8
:101080001043802302469A4310467047FC0200201A
:1010900030B58B00C3585B68002B26D1012A12D1D2
:1010A000124B5B688C00045964781B5D8C000459FA
:1010B00025780124AC4023430C4C64688D004559CD
:1010C0006D78635511E0094B5B688C0004596478B6
:1010D0001C5D8B00C3581D780123AB409C43034B20
:1010E0005B688D0045596D785C5530BD400000202F
:1010F000F0B587B007460E463846FFF781FD0190F0
:10110000FFF710FD059104903046FFF7E4FB0391D3
:101110000290059B049AFFF791F904460D4622467A
:101120002B4620462946FFF7D9FB22462B46039142
:101130000290FFF7D3FB05910490FFF741F907B048
:10114000F0BD000010B5044C036823600B686360B9
:101150001378237210BD0000C003002008B50020E2
:1011600000902948006801210904084326490860C5
:1011700002E00098401C00902348006801214904C7
:101180000840002804D10521090300988842F0D1C5
:101190001D480068012149040840002831D0002082
:1011A000FFF776FE0020FFF77BFE174840687F219F
:1011B000C903884314494860012000F0FDFC13482E
:1011C000007A012819DD012000F0FEFC0F49087AA1
:1011D00000F0E0FC0C4800680121090608430A49B8
:1011E000086000BF0848006801214906084000283F
:1011F000F8D0022000F092FC05E0012000F08EFC07
:1012000001E000F005F808BD00100240C003002016
:1012100010B50020FFF73CFE0020FFF741FE164806
:1012200040687F21C903884313494860012000F0CA
:10123000C3FC1248007A012819DD002000F0C4FC2C
:101240000E49087A00F0A6FC0B4800680121090647
:1012500008430949086000BF0748006801214906A2
:1012600008400028F8D0022000F058FC02E00020DE
:1012700000F054FC10BD000000100240C00300202C
:1012800010B5012200211348FFF702FF0122114689
:101290001048FFF7FDFE012202210E48FFF7F8FE7D
:1012A000012203210B48FFF7F3FE01220421094824
:1012B000FFF7EEFE012205210648FFF7E9FE0122B5
:1012C00006210448FFF7E4FE012207210148FFF749
:1012D000DFFE10BD6C000020FFB583B00746154649
:1012E0001E46002442480770414904984870084649
:1012F0008570C670002001210223024600910190F2
:1013000031463C48FFF75CFE002000900223024675
:10131000294601903848FFF753FE3549C978344AC9
:10132000927851430846FEF749FF34490860304936
:10133000C9782F4A927851430846FEF73FFF2F495C
:1013400048602B49C9782A4A927851430846FEF7EB
:1013500035FF27494860C978254A927851430846A5
:10136000FEF72CFF2549886000BF13E000202349C9
:101370000968085521494968085501201F498968AD
:10138000085500201A49496808551C4908734873D4
:10139000601CC4B21648C078154989784843A042F9
:1013A000E4DC0120124949680870022010494968AC
:1013B000487003200E494968887004200C49496828
:1013C000C87005200A49496808710620084949681B
:1013D000487107200649496888710820044949680E
:1013E000C871092002494968087207B0F0BD0000C1
:1013F000040000202000002014000020FC02002037
:1014000008B50020009074490870DCE073488178CA
:101410000022734800F09EF96F4909788900704AEC
:101420005058012100F082F96B49097889006C4A13
:10143000505801F09DFA0020009004E068460088B2
:10144000401C81B20091684600887D21C900884215
:10145000F4DB002063490870A9E06249097889003B
:10146000614A505800F0AFF9002849D15B4A117821
:101470005078FEF7FEFE5D490A685849C978564B18
:101480001B785943574B1B78C918515C884218DDAB
:10149000564801685148C0784F4A12785043514A23
:1014A00012788018085C401CC1B2504802684B4852
:1014B000C078494B1B7858434A4B1B78C0181154CD
:1014C00070E0464880784549C97848434749497B98
:1014D000884267DD4548407B401C444948730846C4
:1014E000407B01285EDC0121404842683B48C078CF
:1014F000394B1B7858433B4B1B78C018115451E0B3
:10150000364A11785078FEF7B4FE38490A683349F4
:10151000C978314B1B785943324B1B78C918515C41
:10152000884217DD0021314802682C48C0782A4BD8
:101530001B7858432B4B1B78C018115400222B48A2
:1015400041682648C078244B1B785843254B1B78AC
:10155000C0180A54254841682048C0781E4A1278AD
:101560005043204A12788018085C01281AD10021C3
:101570001E4842681948C078174B1B785843194BCE
:101580001B78C01811540121184882681348C0788C
:10159000114B1B785843134B1B78C0181154002073
:1015A000124948730F480078401C0E4908700B48D8
:1015B000C0780C490978884200DD4EE7064800787B
:1015C000401C05490870054880780349097888421D
:1015D00000DD1BE708BD00002C00002004000020F7
:1015E000140000202D00002020000020FC0200201C
:1015F00000218278002A27D0184A03231B02D21820
:1016000003789B109B00D15802789207D30EFF22DB
:101610009A400B469343194642789207120E03787C
:101620009B07DB0E9A4011430C4A03231B02D2187E
:1016300003789B109B00D1500278D306DB0E012269
:101640009A40064B1A6007E00278D306DB0E0122AF
:101650009A40024B80331A607047000000E100E0BE
:1016600010B5002819DA1A4A03071B0F083B9B081C
:101670009B00D2588307DC0EFF23A3409A438B07BD
:101680001B0E8407E40EA3401A43114B0407240FDA
:10169000083CA408A4001A5118E00E4A03231B02B8
:1016A000D21883089B00D2588307DC0EFF23A34087
:1016B0009A438B071B0E8407E40EA3401A43054B85
:1016C000032424021B198408A4001A5110BD000031
:1016D0001CED00E000E100E070B500220023047979
:1016E0006407E50E0C46AC402246046820340579B8
:1016F000ED10AD00645905796D07EE0E0F25B5406C
:10170000AC43056820350679F610B600AC51046884
:1017100020340579ED10AD00645914432346046864
:1017200020340579ED10AD00635170BD10B502682D
:10173000126803795C000323A3409A4303681A608C
:101740000268126803795C000B46A3401A430368E1
:101750001A6010BDF0B505460E461746002400BFBE
:1017600006E0A10068583946FFF7E0FF601CC4B2EC
:10177000B442F6DBF0BD10B5002908D102689288AA
:1017800004790123A3409A4303689A8007E0026822
:10179000928804790123A3401A4303689A8010BDFC
:1017A00010B50A460368D96803795C000323A34097
:1017B0000C469C43214603795C001346A340194321
:1017C0000368D96010BD10B5014600200A68128A6E
:1017D0000C790123A3401A40002A01D0012000E027
:1017E000002010BDF0B585B007460C46002500204E
:1017F00003900290384601F007F90646002E01D109
:1018000005B0F0BD642C00DDFAE71448008800192B
:10181000401E0A21484385B21048008800196428F8
:1018200003DD0F49304601F01BFA29467D20C00038
:10183000FFF75EFC02902846FFF7E2F9009002995C
:1018400001F02EFA0190FFF797F980B2039030462D
:10185000039901F005FA00BFD2E700002E00002036
:10186000E7030000002905D0054A92690243044BB2
:101870009A6104E0024A92698243014B9A6170477F
:1018800000100240FEB5044600250026002002900C
:10189000019000900027864840680C2108400546CA
:1018A000002D06D0042D07D0082D08D00C2D2CD1EA
:1018B00028E0804820602BE07E48206028E07C48BB
:1018C00040680F2189040840064679484068032192
:1018D000C90308400290B00C861C0298002803D16E
:1018E0007548374647430BE07148C06A0007000F50
:1018F000401C01906F480199FEF7B1FC7043074608
:10190000276005E06D48206002E06A48206000BF63
:1019100000BF67484068F021084005462D09684827
:10192000405D009020680099C84060606048406851
:1019300007210902084005462D0A6148405D0090D4
:1019400061680098C140A1605948006BFF210131D6
:101950000840884202D05B48E0600DE0544840688F
:10196000012189030840884203D0A0684008E06054
:1019700002E0A0688008E0604D48006B402108400C
:10198000402802D05048206102E00120C0032061BD
:101990004748006B10210840102802D0454860617C
:1019A00001E0206860614248006B8007800F0028DA
:1019B00002D1A068A06119E03D48006B8007800F4C
:1019C000012802D12068A06110E03948006B80072F
:1019D000800F022802D18003A06107E03448006B29
:1019E0008007800F032801D13248A0613048006B86
:1019F000032109040840002802D1A068E06120E02A
:101A00002B48006B03210904084001210904884286
:101A100002D12068E06114E02548006B032109042D
:101A2000084001214904884202D18010E06108E0A9
:101A30001F48006B032109040840884201D11D485A
:101A4000E0611B48006B032189040840002802D193
:101A5000A068206220E01648006B0321890408403A
:101A600001218904884202D12068206214E01048D4
:101A7000006B0321890408400121C904884202D176
:101A80000011206208E00A48006B03218904084025
:101A9000884201D1074820620548006B8021084038
:101AA000802802D00548606200E06762FEBD000049
:101AB0000010024000127A0000093D00006CDC02B8
:101AC000EB020020809FD500128000001CB5002092
:101AD000009003230122114601900D48FFF770FA90
:101AE0000020009003230122022101900948FFF702
:101AF00067FA0220084908700878FEF75FFB06497C
:101B000048600020496808700349496848701CBD56
:101B1000980000209000002040000020012812D1F1
:101B20001B49496802229143194A5160114649688C
:101B300001221143164A516000BF154949680C2221
:101B400011400429F9D100280CD1114949688908AC
:101B500089000F4A516000BF0D4949680C221140AD
:101B60000029F9D1022812D10949496849084900D8
:101B7000074A51601146496802221143044A5160E4
:101B800000BF034949680C2211400829F9D1704768
:101B90000010024001280ADD102808DC04494968C9
:101BA000821E9200034B9A581143014A51607047BC
:101BB00000100240C82D0008C106C90E491E014A86
:101BC000D16270470010024001280BD10E494968CC
:101BD000020411430C4A516011464968C203914303
:101BE000094A516000280DD1074949680122D203F2
:101BF0001143054A5160114649680122120491437C
:101C0000014A5160704700000010024010B50446C0
:101C1000642C08DC21460020FFF7E4FD214601206A
:101C2000FFF7E0FD07E064210020FFF7DBFD642102
:101C30000120FFF7D7FD10BD10B502689268037947
:101C40005C000323A3409A4303689A600268926889
:101C500003795C000B46A3401A4303689A6010BDE9
:101C6000002022E00C214143114A8918097A0029F9
:101C70001AD00C21414389188988491E8AB20C2147
:101C800041430B4BC9188A80002A0DD10C214143D6
:101C90001A468918CA880C214143C9188A80012232
:101CA0000C214143C9184A72401C0F28DADB7047E7
:101CB0000C03002070B505460E4600242FE00C20D2
:101CC000604319490858002828D101210C2060439D
:101CD000154A8018017200210C206043801841725F
:101CE0000C20604311460E50294610480068FEF74C
:101CF000B6FA81B20C2060430B4A8018C1800C20D8
:101D0000604311464018C1880C20604380188180D0
:101D100007480068401C0649086070BD641C0F2C11
:101D2000CDDB00BFFEE700000C03002030000020E8
:101D30003400002070B5044662B6002C00D170BD9E
:101D400000201649086016480460B4211548FEF7C3
:101D500084FA00F059FD06462146FEF780FA054652
:101D6000681E1149884200D90CE0681E0F4948617D
:101D70000321081FFFF774FC00200C49886107202D
:101D8000086100BF0020C043C206D20E012191406D
:101D9000074A116000BF00BFD1E7000034000020F7
:101DA000300000200C030020FFFFFF0000E000E0F7
:101DB00000E100E010B5002411E00C206043094967
:101DC0004018407A002809D000210C206043054AC1
:101DD000801841720C21614350588047641C0F2CBD
:101DE000EBDB10BD0C030020002940D00923DB06EB
:101DF00002689A4206D13E4A526901235B041A43A3
:101E00003B4B5A613B4B02689A4205D1384A5269B2
:101E10001B021A43364B5A61374B02689A4205D16E
:101E2000334A52691B021A43314B5A61334B0268E1
:101E30009A4206D12E4A526901231B051A432C4BA4
:101E40005A612F4B02689A4205D1294A52695B02B6
:101E50001A43274B5A612B4B02689A4247D1244AB6
:101E6000526901239B051A43214B5A613FE0092324
:101E7000DB0602689A4206D11D4A526901235B04BF
:101E80009A431B4B5A611B4B02689A4205D1184A70
:101E900052691B029A43164B5A61174B02689A42C9
:101EA00005D1134A52691B029A43114B5A61134BD5
:101EB00002689A4206D10E4A526901231B059A43D1
:101EC0000B4B5A610E4B02689A4205D1084A52697F
:101ED0005B029A43064B5A610A4B02689A4206D14A
:101EE000034A526901239B059A43014B5A6170478B
:101EF000001002400004004800080048000C0048A0
:101F000000100048001400480168898A0379012202
:101F10009A405140026891827047000010B53349E1
:101F2000334800F08FF801282DD13148C0690007EF
:101F3000000F002824D12E4800F048F9C1B22D48E6
:101F40000488601C2B4A10802B48015510460088DD
:101F5000FF210131884202D1002011460880274824
:101F60000088401C80B225490880FF210131884249
:101F700009D100202149088001202149087002E090
:101F80001B4800F023F91F49194800F05BF80128AD
:101F900002D1174800F01AF91B49154800F052F811
:101FA000012821D119480088002818D01748008836
:101FB000401E1649088016480488601C144A108088
:101FC0001448015D0A4800F006F911480088FF2115
:101FD0000131884208D100200D49088004E0002228
:101FE0000949034800F055F810BD0000050105003F
:101FF00000380140B6000020E4030020BA000020B1
:10200000BC0000200003030007010700C2000020FD
:10201000C0000020E4040020002904D0026801234D
:102020001A43026003E002685208520002607047DF
:1020300002460020D3690B40002B01D0012000E0B4
:102040000020704770B502460B4600240021002591
:1020500000201E04350ED9B201268E403146012DD6
:1020600002D11668314006E0022D02D15668314097
:1020700001E0966831401C0C0126A6403446D66922
:102080003440002903D0002C01D0012000E00020C2
:1020900070BDF8B5034600240026009600250020F8
:1020A00018460E04340ECEB200960127009EB740AB
:1020B0003D46022C01D1001D02E0032C00D1083066
:1020C000002A03D006682E43066002E00668AE438D
:1020D0000660F8BDF0B58BB004460D460027002021
:1020E0000A900026206840084000206066680321AE
:1020F0000903304688430646A8680643666026689A
:102100002D480640E9686868084329690843064382
:102110002660A6680321090230468843064668699E
:102120000643A6606846FFF7ADFB2448844202D10F
:1021300006980A900DE02248844202D107980A903E
:1021400007E02048844202D108980A9001E00298F2
:102150000A9020680121C903084000280CD0296892
:102160000A9A5000FEF77BF8074629680A9A500041
:10217000FEF775F80E4609E029680A98FEF76FF831
:10218000074629680A98FEF76AF80E46286840084C
:10219000B04200D87F1C20680121C90308400028F4
:1021A00006D03807460F38460749084030430746EF
:1021B000A7810BB0F0BD0000F3E9FFFF003801403C
:1021C0000044004000480040F0FF00000146888CB9
:1021D000C005C00D7047CA05D20D028570470000CA
:1021E0001CB5002001210323022200910190114619
:1021F0001848FEF7E5FE01211748FFF76DFA0121A7
:102200001648FFF769FA01218803FFF72BFB4B20E3
:10221000000213490860002048608860C860486177
:102220000C2008610F48FFF755FF1B200E4908706E
:1022300000204870012088700846FFF7D9F9012175
:102240000848FFF7E9FE012208490648FFF721FF89
:102250001CBD0000C8000020AC2E0008B42E0008F1
:10226000CC03002000380140C40000200501050017
:1022700070B500240025F9480088002814D000F02B
:10228000E5FAF749087008460078F649F64A1278E8
:102290008854F5480078401CF349087008460078D7
:1022A000042801D100200870EE4800780A2813D0D5
:1022B000EC4800780B280FD0EA4800780C280BD0A7
:1022C000E84800780D2807D0E64800780E2803D0AB
:1022D000E44800780F287DD1E24800780A282AD106
:1022E000E04840783F2826D1DE488078472822D130
:1022F0000A20DE490870FEF789FEDC494870022199
:10230000DA4800F087FA05462812D8498870CD705F
:1023100000240BE00020D3490855D449085D00F0A3
:1023200031FB0020D1490855601CC4B2042CF1DBFC
:102330000020CD490870CB4800780B2817D1C94838
:102340004078FE2813D1C748807887280FD1002411
:1023500008E0C449085D00F015FB0020C14908559C
:10236000601CC4B2032CF4DB0020BF490870BD48D8
:1023700000780C2825D10221BA4800F04BFA00124F
:10238000B849897888421CD10221B64800F042FA47
:10239000C0B2B449C978884213D1B2484078B44930
:1023A000087008460078FFF731FC002404E00020A4
:1023B000AC490855601CC4B2042CF8DB0020AA49C3
:1023C0000870A84800780D282BD1A64840787E28B0
:1023D00027D100E065E1A3488078852821D10D2030
:1023E000A2490870A2480078487002219F4800F076
:1023F00011FA054628129D498870CD7000240BE023
:102400000020984908559949085D00F0BBFA002062
:1024100096490855601CC4B2042CF1DB0020924997
:102420000870904800780E2877D102218D4800F07E
:10243000F1F900128B4989788842F5D10221894847
:1024400000F0E8F9C0B28749C9788842ECD18548E4
:1024500040788849087008460078C007C00F0028F7
:102460000AD0002211468448FEF712FE0122002104
:102470008248FEF70DFE09E0012200217E48FEF7AA
:1024800007FE002211467D48FEF702FE79480078DB
:102490000221084000280AD0002201217648FEF7D8
:1024A000F7FD012211467548FEF7F2FD09E0012211
:1024B00011467148FEF7ECFD002201216F48FEF73E
:1024C000E7FD6C4800780421084000280AD000226B
:1024D00002216948FEF7DCFD012202216748FEF770
:1024E000D7FD09E0012202216348FEF7D1FD002259
:1024F00002216248FEF7CCFD5E48007808210840C2
:1025000000280BD0002206215B48FEF7C1FD012206
:1025100006215A48FEF7BCFD0AE081E001220621AF
:102520005548FEF7B5FD002206215448FEF7B0FDE0
:10253000504800781021084000280AD000220421C9
:102540004D48FEF7A5FD012204214C48FEF7A0FDF1
:1025500009E0012204214848FEF79AFD00220421E7
:102560004648FEF795FD43480078202108400028A2
:102570000AD0002207214048FEF78AFD01220721E8
:102580003E48FEF785FD09E0012207213A48FEF7A3
:102590007FFD002207213948FEF77AFD3548007893
:1025A0004021084000280AD0002203213248FEF7CB
:1025B0006FFD012203213148FEF76AFD09E0012287
:1025C00003212D48FEF764FD002203212B48FEF76E
:1025D0005FFD284800788021084000280AD00022AA
:1025E00005212548FEF754FD012205212348FEF769
:1025F0004FFD09E0012205211F48FEF749FD002299
:1026000005211E48FEF744FD002404E00020154982
:102610000855601CC4B2042CF8DB00201249087075
:10262000104800780F284ED10E484078FF284AD134
:102630000C488078442846D10F200C4908700D487A
:10264000007848700221094800F0E4F80546281295
:1026500006498870CD7000241DE00000BA000020FB
:10266000D8000020E0000020EA000020DC0000206C
:10267000E8000020E90000206C0000204800002055
:102680001149085D00F07EF90020104908550E49F7
:102690000855601CC4B2042CF2DB00200C49087001
:1026A00011E00A48007800280DD000200849087081
:1026B000002406E000200549085503490855601C20
:1026C000C4B2042CF6DB70BDDC000020E00000206A
:1026D000EA0000200148024908607047AAAA0000E9
:1026E00000300040F8B5054615480090154969438B
:1026F00008467D21C900FDF7B2FD064600270424E7
:1027000001E064007F1C21463046FDF7A8FD0C491E
:102710008842F6D821463046FDF7A1FD0646FF2047
:102720000130844201D90727054E07480749086050
:102730000846476086600648086006480860F8BD9D
:10274000FF0F0000409C0000555500000030004085
:10275000AAAA0000CCCC000070B50446002517E002
:10276000E007C00F002804D00B49086800F0F8F813
:1027700003E00949086800F0FBF80749486800F0E1
:10278000EFF864100449486800F0F2F8681CC5B21C
:10279000082DE5DB70BD00009000002010B500247E
:1027A00006E00A494968085DFFF7D6FF601CC4B21D
:1027B00006480078A042F4DC0549086800F0D0F82B
:1027C0000349086800F0D4F810BD00004000002064
:1027D0009800002070B50125094840684005440F65
:1027E00004202040002804D0A107890F022088403F
:1027F0000546294603480068FDF731FD70BD00001D
:1028000000100240380000200148006870470000B6
:102810003800002070B502460B46FF25FF2408E073
:102820001178521C69400748405C604005460648E4
:10283000445C18465E1EF3B20028F1D12802204302
:1028400070BD0000EB000020EB01002010B500BFC0
:10285000124800880028FBD011490888411C104A02
:10286000118010490C5C10460088FF21013188421C
:1028700002D100201146088000220B490B48FFF7C7
:1028800008FC06480088401E0449088001220649C9
:102890000648FFF7FEFB204610BD0000BA000020EE
:1028A000B8000020E40300200501050000380140C5
:1028B0001CB5224A22490120FEF722FB7D20C000E0
:1028C000FFF738FA00200090022301221146019000
:1028D0001C48FEF775FB1C496420FFF7EBF9FFF776
:1028E000F5F81A496420FFF7E5F919496420FFF764
:1028F000E1F903231A4628210A20FEF7EDFC1549C9
:102900006420FFF7D7F9002000F08AF8012000F0DA
:1029100087F811480078FFF779F9FFF761FC9620F6
:10292000FFF7E0FE0D490A20FFF7C4F9FEF7A8FC07
:1029300003E0FFF73FFAFFF79BFCFAE7006CDC02CD
:1029400000127A00D4000020912C00089D27000876
:10295000FF0E000801140008E8000020D52600083A
:1029600001790A07120F01219140026891617047B5
:1029700001790A07120F012191400904026891614F
:102980007047000010B5044600BF1A480088FF21B8
:1029900001318842F9D0002217491848FFF779FB26
:1029A00014480088002805D180211448FFF740FB17
:1029B00000281AD112490888411C114A1180114976
:1029C0000C5410460088FF210131884202D10020BA
:1029D0001146088007480088401C064908800122EB
:1029E00005490648FFF755FB03E021460348FFF77A
:1029F000F2FB10BDC20000200701070000380140B3
:102A0000BE000020E40400200146022901DB002072
:102A1000704724204843014A8018F9E7802D0008B8
:102A200070B505462846FFF7EFFF0446002C00D19D
:102A300070BD204600F0DEF8204600F002F800BF2E
:102A4000F6E710B50446012120461830FFF7CCF90F
:102A5000022120461830FEF769FE03212046183077
:102A6000FFF7EAF8002120461830FEF799FE002112
:102A700020461830FEF77FFE217D20461830FEF7F5
:102A80002BFE2068008840084000216808806068AC
:102A9000012806D0022828D003284CD0042823D1AE
:102AA00070E02068008B70218843216808832068CB
:102AB000008B60210843216808832020005D0028E6
:102AC00006D12068008C022108432168088405E0B3
:102AD0002068008C02218843216808842068008CCB
:102AE000012108432168088475E02068008B0721D4
:102AF00009038843216808832068008B0321490368
:102B00000843216808832020005D002806D1206842
:102B1000008C202108432168088405E02068008C8F
:102B200020218843216808842068008C10210843F4
:102B3000216808844FE02068808B702188432168D9
:102B400088832068808B6021084321688883202047
:102B5000005D002807D12068008C0121490208434C
:102B60002168088406E02068008C0121490288431E
:102B7000216808842068008CFF2101310843216806
:102B8000088428E02068808B072109038843216896
:102B900088832068808B0321490308432168888348
:102BA0002020005D002807D12068008C0121490306
:102BB00008432168088406E02068008C012149034D
:102BC0008843216808842068008C01210903084398
:102BD0002168088400BF00BF0021204600F040F8B3
:102BE000012021688882206800880121084321682B
:102BF000088010BD70B50446FFF7ECFD054620695E
:102C00000068E16808432169086013482168C862C8
:102C10007D2149012846FDF722FB06467D21C9009A
:102C2000FDF71DFB401E21680885206800880121F2
:102C3000084321680880207A002808D020684030A6
:102C400080880121C9030843216840318880FEF74C
:102C50002FF90249088070BDE70300002E00002014
:102C60004268012A06D0022A07D0032A08D0042A83
:102C70000CD108E00268516308E00268916305E046
:102C80000268D16302E00268116400BF00BF7047B0
:102C900010B50248FFF738F910BD0000BC2E00083F
:102CA00070B5420064414B005C41120E39D01B0EDE
:102CB00038D0FF2A3CD0FF2B3AD040024902400ACC
:102CC000490A060045184E43000A090AD21848432B
:102CD000ED017F3A0104731A4019190C4318990F3A
:102CE00004D001215B0849075B1A521CD80904D3A0
:102CF000401CF50301D19D0607D0FF2A08D2D50557
:102D000006D0E4072043401970BD0125A843F4E72D
:102D1000002A01DCE00770BD2402FF202043C0052B
:102D200070BD1B0EFF2A03D0FF2B01D0E00770BD42
:102D3000FF2645003606B54206D84D00B54203D8F9
:102D4000D218FF2A00D0E7E7004870BD0000C07F1E
:102D5000000000480B000000000000480C000000CC
:102D600000040048030000000004004804000000C4
:102D700000040048050000000004004806000000B0
:102D800000040040040000000000000002000000F9
:102D90001C10024001000000000400480100000077
:102DA00000000000000400400300000000000000DC
:102DB000020000001C100240010000000004004856
:102DC00000000000000000000000000000000400FF
:102DD0000000080000000C000000100000001400BB
:102DE0000000180000001C0000002000000024006B
:102DF0000000280000002C0000003000000034001B
:102E0000000038000700000000000000070100007B
:102E100000000000060000000000000006010000A5
:102E20000000000005000000000000000501000097
:102E30000000000004000000000000000401000089
:102E4000000000000300000000000000030100007B
:102E5000000000000200000000000000020100006D
:102E6000000000000100000000000000010100005F
:102E70000000000000000000000000000001000051
:102E800000000000000000480700000000000048AB
:102E90000500000000000048060000000004004893
:102EA000000000000004004801000000000000488D
:102EB000020000000000004803000000000000487D
:102EC0000100000080807F7E7D7C7B7A7978777638
:102ED00076757473727171706F6E6E6D6C6C6B6AF7
:102EE0006A69686867666665646463636261616095
:102EF000605F5F5E5E5D5D5C5C5B5B5A5A59595812
:102F0000585757565655555554545353525252517B
:102F1000515050504F4F4F4E4E4D4D4D4C4C4C4BD1
:102F20004B4B4A4A4A494949484848474747474618
:102F30004646454545444444444343434342424254
:102F400042414141642F000800000020FC020000C3
:102F5000380E000804310008FC0200204C09000073
:102F60000401000841A50A50030315F301502D1B6D
:102F70000858041A60041A68041A70041A7804D1F4
:102F8000D3127A130C2E1B081C041A2C041A3C04AE
:102F90001A4C041A5C041A6C041A7C04411A0408C2
:102FA0001A14041A24041A34041A44041A54041A6D
:102FB00064045A74241A84081A8C041A94041AA4F7
:102FC000045A9C18C1F911311AAC285AB42CDABC35
:102FD00034320C32322808C1814001C0804104697A
:102FE0000C2908E918A91C091A3009163809366095
:102FF000092E70092F6000FF00C0C101C30302C287
:10300000C60607C705C5C404CC0C0DCD0FCFCE0E28
:103010000ACACB0BC90908C8D81819D91BDBDA1A98
:103020001EDEDF1FDD1D1CDC14D4D515D71716D608
:10303000D21213D311D1D010F03031F133F3F23278
:1030400036F6F737F53534F43CFCFD3DFF3F3EFEE8
:10305000FA3A3BFB39F9F83828E8E929EB2B2AEA58
:10306000EE2E2FEF2DEDEC2CE42425E527E7E626C8
:1030700022E2E323E12120E0A06061A163A3A26238
:1030800066A6A767A56564A46CACAD6DAF6F6EAEA8
:10309000AA6A6BAB69A9A86878B8B979BB7B7ABA18
:1030A000BE7E7FBF7DBDBC7CB47475B577B7B67688
:1030B00072B2B373B17170B05090915193535292F8
:1030C00096565797559594549C5C5D9D5F9F9E5E68
:1030D0005A9A9B5B99595898884849894B8B8A4AD8
:1030E0004E8E8F4F8D4D4C8C448485458747468648
:1030F0008242438341818042402D01020304041532
:0431000006070809AD
:04000005080000C12E
:00000001FF
