:020000040800F2
:100000009809002089010008651D0008C117000833
:1000100000000000000000000000000000000000E0
:10002000000000000000000000000000C91F0008E0
:100030000000000000000000D91D00080123000896
:10004000B9010008B9010008B9010008B9010008A8
:10005000B9010008B9010008B90100086F160008CD
:10006000B90100086D160008B9010008B9010008BF
:10007000B9010008B9010008B9010008B901000878
:10008000B90100080000000000000000B9010008EC
:1000900000000000B9010008B9010008B90100081A
:1000A00000000000B9010008B9010008B90100080A
:1000B000B901000800000000B9010008372E00084F
:1000C00000F002F800F034F80CA030C8083824180A
:1000D0002D18A246671EAB4654465D46AC4201D180
:1000E00000F026F87E460F3E0FCCB646012633427E
:1000F00000D0FB1AA246AB463343184794350000A4
:10010000B43500000023002400250026103A01D356
:1001100078C1FBD8520700D330C100D50B607047BF
:100120001FB50098019900F0ECFD1FBD10B510BD82
:1001300000F067FE1146FFF7F3FF02F07DFF00F0CD
:100140007FFE03B4FFF7F2FF03BC00F0AFFE000038
:1001500070B505460C46164602E00FCC0FC5103EA2
:10016000102EFAD2082E02D303CC03C5083E042E6B
:1001700007D301CC01C5361F03E021782970641C28
:100180006D1C761EF9D270BD0F4880F308880F48A9
:100190000168090E0E4A914205D10E480E490160D0
:1001A0000E480F4901600F4880470F480047FEE79F
:1001B000FEE7FEE7FEE7FEE7FEE700000B480C491E
:1001C0000C4A0D4B70470000980900200400000005
:1001D0001F00000018100240010000000000014054
:1001E0000000000035230008C1000008980300202B
:1001F00098090020980500209805002070B5064653
:1002000000F062FD056830460B30C408E400B442DB
:1002100001D8002070BD68682A46002818D00168FF
:10022000A14211D30B46214608318B4208D34368C3
:1002300001194B6003681B1B0B605160046001E0F7
:1002400041685160001D70BD024640680028E6D13B
:100250002146284600F040FD0028DCD170BDF8B5ED
:10026000042A2CD3830712D00B78491C0370401C3E
:10027000521E83070BD00B78491C0370401C521E82
:10028000830704D00B78491C0370401C521E8B0757
:100290009B0F05D0C91ADF002023DE1B08C90AE026
:1002A000FFF756FFF8BD1D4608C9FD401C46B44087
:1002B0002C4310C0121F042AF5D2F308C91A521E8B
:1002C000F0D40B78491C0370401C521EEAD40B7802
:1002D000491C0370401C012AE4D409780170F8BD60
:1002E00001E004C0091F0429FBD28B0701D502805D
:1002F000801CC90700D00270704700290BD0C307CB
:1003000002D00270401C491E022904D3830702D583
:100310000280801C891EE3E70022EEE70022DFE76F
:10032000002203098B422CD3030A8B4211D30023F2
:100330009C464EE003460B433CD4002243088B42CC
:1003400031D303098B421CD3030A8B4201D3944659
:100350003FE0C3098B4201D3CB01C01A524183094C
:100360008B4201D38B01C01A524143098B4201D306
:100370004B01C01A524103098B4201D30B01C01A31
:100380005241C3088B4201D3CB00C01A52418308AB
:100390008B4201D38B00C01A524143088B4201D3D8
:1003A0004B00C01A5241411A00D201465241104638
:1003B00070475DE0CA0F00D04942031000D34042AD
:1003C000534000229C4603098B422DD3030A8B42E3
:1003D00012D3FC22890112BA030A8B420CD3890181
:1003E00092118B4208D3890192118B4204D3890167
:1003F0003AD0921100E08909C3098B4201D3CB01A5
:10040000C01A524183098B4201D38B01C01A524159
:1004100043098B4201D34B01C01A524103098B425D
:1004200001D30B01C01A5241C3088B4201D3CB0048
:10043000C01A524183088B4201D38B00C01A52412B
:10044000D9D243088B4201D34B00C01A5241411A02
:1004500000D20146634652415B10104601D3404230
:10046000002B00D54942704763465B1000D34042E1
:1004700001B50020C046C04602BD704770477047B6
:100480000246C80FC00781434B0030B54B405B00AC
:100490009B0D20D01923DB06C91801231B059942A7
:1004A00020DB0324A40704251346AB400BD3002B09
:1004B00004D1EB0613409B00E34204D401246407FB
:1004C000002312195941FF231B0599420BD2C90081
:1004D0000143500F09E0CB0204D501430803024356
:1004E00005D0054830BDFF21C905084330BD084689
:1004F00007210905884330BD0000C07FF0B5F94DE4
:100500000C091E092C402E402F468BB0A7437DD0EE
:10051000B543FCD0002E7AD0002CFCD00D465D40B7
:10052000ED0F2543AC1BFF25AD0464190894C502EB
:10053000440DC9022143500DDC0204430120C007D1
:1005400001430443D2020191200C110C00958C460A
:10055000010423468B430A9161460904E24D8A4314
:100560000991010A7D4449198039097805464D43AE
:1005700001266D18F605751B6943C90C640B891CAF
:100580004C436418B5012C1B250C2E04B4434C437A
:100590004D43210C691889090591009DE90701D097
:1005A0000121C90704912C4601996708CD072F4303
:1005B0004C08059DE10B4D432D0C294666467543BD
:1005C00002950D4645432E46029D7D1BB441009584
:1005D0000D465D4301942C0C2F040D465543AE4649
:1005E0002D0C3D43029503947546049C2D04641B19
:1005F000049406D2029C039D641C00267541039559
:10060000029401AC70CC009F7D1B01E03EE162E1F1
:10061000B44109040095079101940599A408614328
:10062000090C0C464443650BE7040C4666467443CC
:10063000A646640B3C43039502947446049DE4046F
:100640002C1B049406D2029C039D641C0026754159
:100650000395029401AC70CC009F7D1BB4410194C2
:100660000C465C430095650FE7000C465443A646D4
:10067000640F3C43039502947446049DE4002C1BD4
:10068000049406D2029C039D641C002675410395C8
:10069000029401AC70CC009F7D1BB441AE09AF0643
:1006A000049DC900AD092F43049DA406AD06049521
:1006B000079D344369180791059DE10B4D432D0CAF
:1006C00029466646754302950D4645432E46029DD2
:1006D0007D1BB44100950D465D4301942C0C2F0405
:1006E0000D465543AE462D0C3D4302950394754689
:1006F000049C2D04641B049406D2029C039D641C7C
:10070000002675410395029401AC70CC009F7D1BBF
:10071000B44101948C050694079C890A61180095E0
:100720000791019C0599A4086143090C0D464543B6
:10073000680BEF040D46644665436C0B3C43049F15
:10074000ED047D1BAC4602D20025641C6841009E6E
:10075000019D371B85410846584301950C46460FBD
:10076000C5005443600F28436546E4002C1B02D2A9
:100770000025401C6E41019D3F1AB5412846BD0928
:10078000800628438446A009BF064E020699A406A7
:1007900076180743079D002068410A99079019437E
:1007A0000020099B00906046FF1913434041E20F6F
:1007B00064003A43A4460446D71A8C41A04203D9A8
:1007C0000120009020463A46C70F941840416246E7
:1007D000D20F2243644664000494009CBE46640029
:1007E000D71AA446044602978C417746002F01D1C0
:1007F000A04204D96046401C8446029A2046C40F99
:10080000A64694184041049A0546D20F22436446F6
:100810006400D31A8D417146002901D1A84202D942
:1008200028461A46641C10430122002800D01643B3
:1008300061020020079B891904465C410223002CB9
:1008400002DB491813466441089DCE0A2D145D1938
:100850004B056705E10A2C050D1908993E43C907A8
:100860006940002B08D0934006D30022761C5141EA
:10087000002B01D1760876001C4A002D43DB15427F
:1008800041D0AA433FD030460BB0F0BD06180D460C
:100890004D41174C7642AC411AD395181C465C4129
:1008A000134A6D42A24113D3012252054C00D44297
:1008B0000AD15C00D4420BD04B4002D592021143C6
:1008C000E2E749004908DFE75940C90FC90718E0C6
:1008D00000200849D8E7054801420DD10342F7D06E
:1008E000F2E700000000FF07A63000000000F07FE4
:1008F0000000E0FF0000F87F114859400143C0129A
:1009000041400020C0E70123089A9B069A4205DC7B
:10091000032252078918C90FC907B5E705225207F4
:100920008918074A1143D2125140ADE770B51546F8
:100930001C4602460B4628462146FFF7DFFD70BDE8
:10094000FFFFFF7F1F22030C02D10F22000402D001
:10095000030E03D004E00020014670470002083A6D
:10096000030F01D10001121F830F01D18000921EDD
:10097000002801DB4000521E120551184205C0122A
:10098000411810467047C10FC90700D040420122EC
:1009900092071143D6E701218907D3E7F0B58B4CC5
:1009A0000F09254689B0BD437BD01D092646AE43BD
:1009B000FAD00E465E402740F60F3E43254071D0E8
:1009C00024012142FBD0FF24AD19A4042D1B039563
:1009D00001252D05DB02DB0AC9022B43C90A294385
:1009E0001E010901040F130F050121431701880B94
:1009F000820391432D098C46A90B1E438A0395431C
:100A0000B30B9A0396433F09BA0B9403A74302968C
:100A10002E467E430497B6464E19D7190C460196CA
:100A2000544305977E43371B7646BF1B3601B646B7
:100A3000BE0B361900967646BC043719009C01D3CC
:100A4000641C00946400002F01D001263443029EF0
:100A5000049F754366467E430496760034196E0003
:100A600034190094029C019E1C196643751BAE4606
:100A7000069465464519059C05956C435943754692
:100A80000891691A0191049E01465143A41B0491E7
:100A9000611A009C0791E10605D06109012211430A
:100AA00002E072E06EE06109089D00272C0A2D0625
:100AB0006918049D7C412A0A2D066918019D62412E
:100AC000AC0DAD026D185441079A910D9202551963
:100AD0006141029A644658435443069B059A5A431F
:100AE000121A131B9A0E9B015B187A41010B000529
:100AF000C3185141220A200644195A419A4200D291
:100B0000491C01204002814203D315230226F643EB
:100B100002E014230326F6432020C51AA9401746F5
:100B2000AF40DA400A4320460399D84009147318AD
:100B300019055118039A3843D2075140AC4009D0E7
:100B40000122944006D30022401C5141002C01D1C7
:100B5000400840001E4A934212D301220398920695
:100B6000904207DB0520400709181A480143C012CC
:100B7000414004E0032040070818C10FC9070020C6
:100B800009B0F0BD0020F107FAE705180C464C410A
:100B900011486D42A04115D394181A465A410E4887
:100BA000644290410ED301204A004005824209D39D
:100BB0005A00824206D35940C90F084AC90700208B
:100BC0001143DDE700200649DAE700000000FF07D7
:100BD000FE070000FFFFFF7F0000E0FF0000F07F46
:100BE0000000F87F0121C9050123411842001B06BE
:100BF000D3185B0E0AD0C1100722D206891840070D
:100C00005242D14201D5520089187047090208D5D5
:100C10000146002A03D0C10FC907002070471046C3
:100C20007047420202D0002002497047072109059F
:100C30000143F4E70000F87F0102C21504D001234C
:100C4000DB071943002A0ADB9E239A1A02D40846BE
:100C5000D0407047FF2241001206914201D9002086
:100C60007047C017C04370471F22030C02D10F22E8
:100C700000041CD0030E01D10002083A030F01D179
:100C80000001121F830F01D18000921E002801DB9A
:100C90004000521ED20551180212511819229040DC
:100CA00004D3491C002801D149084900084670476F
:100CB000C10FC90700D04042012292071143D3E778
:100CC00001218907D0E70000004870474003002059
:100CD000704770477047704738B504460A46002091
:100CE0006946C046C046002805D002462046009905
:100CF00000F066F8012038BD10B5012000F07AF848
:100D000010BDF8B5C046C046054600200C46102070
:100D1000C0460646A819A0420DD9324669460020B1
:100D2000C046C046070001D100F064F80098A04218
:100D300000D00546C419FFF7C7FFF61D074605603A
:100D4000F008C0004619284600F008F8B44204D064
:100D500031463868A21B00F033F8F8BD002101606D
:100D60004160806070471020704770B50446051FD1
:100D7000FFF7AAFF0068002C1AD0446801E0204663
:100D80006468002C01D0AC42F9D301680A18AA4269
:100D900004D12A6805468918016000E0456028688A
:100DA0004119A14205D16168696021684018286035
:100DB00070BD6C6070BD00000048704738030020B3
:100DC00010B50346406801E003464068002801D0A2
:100DD0008842F9D31868C3188B4206D0CB1CD808B8
:100DE000C000001D411A521A0146081D0A60FFF793
:100DF000BCFF10BD10B500F031F800F029F810BDAF
:100E000070477546FFF7D8FFAE4605006946534662
:100E1000C008C000854618B020B5FFF7CFF960BC08
:100E200000274908B6460026C0C5C0C5C0C5C0C514
:100E3000C0C5C0C5C0C5C0C5403D49008D4670474E
:100E400010B50446C046C0462046FFF77AF910BDEB
:100E500010B5002801D000F029F810BD10B5012808
:100E600005D0002103A000F027F8012010BD09A142
:100E7000F8E7000053494752544D454D3A204F750D
:100E800074206F662068656170206D656D6F727982
:100E9000000000003A2048656170206D656D6F723A
:100EA0007920636F7272757074656400014918204F
:100EB000ABBEFEE72600020070B505460C460A20D0
:100EC00000E06D1C00F012F8002D06D028780028F4
:100ED000F7D102E0641C00F009F8002C02D0207861
:100EE0000028F7D10A2000F001F870BD08B5694666
:100EF00008700320ABBE08BD70B58C180578401C87
:100F00006B075B0F01D10378401C2A1106D10278D0
:100F1000401C03E00678401C0E70491C5B1EF9D192
:100F20002B0705D40023521E0DD40B70491CFAE781
:100F30000378401CCB1A921C03E01D780D70491CED
:100F40005B1C521EF9D5A142D8D3002070BD000011
:100F5000044940220028086801D0104300E0904373
:100F600008607047006C004004492022002808688F
:100F700001D0104300E0904308607047006C0040CF
:100F800004494A6803231B079A434A604A6802439C
:100F90004A607047006C0040FEB5002069468880BA
:100FA000964D1DE1088907073F0F22D09348B900ED
:100FB00040380E18306869468880888800047CD5DF
:100FC00030688F490840306028208E4978434418A3
:100FD0006834A07A0028207870D000F093FB400499
:100FE00020786CD500F096FB0090002868D0E1884E
:100FF0008CE00889C00612D4804840380168824AD3
:10100000114001607F4C207E00F0B4FB2063A16A98
:101010000818A0627D48002100684268EAE0794C27
:10102000764E6834403E316868468180808800058D
:1010300013D5207800F08EFBA06102462046A188DF
:10104000583800F0B9FE30686D49084030606F488C
:10105000006881686B488847C2E068468088000461
:101060009FD53168664801403160207800F072FBFE
:10107000A061002809D023690246A188184600F023
:101080009BFEA1692069401820616048002100682A
:1010900002685C48904728695D4980B24118E06861
:1010A0003E280ED9C202120CC00601D1521E92B2C5
:1010B00090020122D20310430AE04AE015E01FE04B
:1010C00028E0C203120CC00701D0521C92B2900259
:1010D000088030684F490840012109034840490011
:1010E00048404D49084330607AE000F033FB0090FF
:1010F000002813D0A1882069009A00F05DFE0DE061
:1011000000F018FB0090002804D021892069009A83
:1011100000F052FE2078002100F0BEFAA16900988C
:101120000818A061216900980A18226160690028E6
:1011300003D0E36800998B4206D9344821780068CF
:1011400002683048904704E083B221782D4800F0CF
:101150009AF968468088000642D5282047432948E6
:101160003C1830682849084030601834A07A0028BC
:1011700020780DD000F0C6FA4006207813D500F094
:10118000C9FAA061002819D00246E188206913E05D
:1011900000F0F0FAA061002814D00246A18820696E
:1011A00001F0CAFE0EE000F0C5FAA061002805D0EB
:1011B000236902462189184601F0BEFE20780121EC
:1011C00000F06AFA207800F0D5FAA06121690A18C7
:1011D000226163692178002B09D00A4800F0CEF91A
:1011E000686869460881000400D5DBE6FEBD074853
:1011F0000068426803489047F2E70000405C004006
:101200008F0F0000600100200F8F000044010020BC
:10121000066000408FBF000080800000810006480B
:1012200008180168490405D50168044A1140044AB8
:101230001143016070470000005C00408F8F000088
:1012400080C000008100064808180168490605D5DD
:101250000168044A1140044A1143016070470000CC
:10126000005C00408F8F0000C0800000FFB50F467B
:101270000546002416E0A600A859012101F0F4F863
:10128000A859029900F0C0FDA859039900F0CCFFBD
:10129000A859099900F0E5FDA8590A9900F0D5FD73
:1012A000641CE4B2BC42E6D3FFBD000003498A6976
:1012B000CB131A438A61012181707047405C004062
:1012C000CA09490610B5490E282359430C18002AAB
:1012D00001D0183400E06834A07A0028607814D077
:1012E000002820781AD0FFF799FF2078FFF7AAFF8F
:1012F000207801F02DF92078002100F069FF207896
:10130000002100F02DFF002010BD0028207802D021
:10131000FFF798FF0EE0FFF781FFF0E7FFF77EFF92
:101320002078FFF78FFF207801F022F92078002144
:1013300000F016FF2078002100F04AFFE3E770B5C7
:10134000CA0906D04906490E282251430C18183400
:1013500003E0282251430C186834607800250028E7
:10136000207806D0FFF76EFF2078302100F030FFA4
:1013700006E0FFF753FF03212078090300F0F0FE99
:10138000A570002070BD70B50E064906490E0D46C9
:10139000282461430C180021002E03DA0120607616
:1013A000183401E068346170E260E3702800207056
:1013B00002D16162E161216221616161A161A1707B
:1013C000002B06D0012B30D0022B05D0032B06D1E9
:1013D00028E00121490200E0002100F011FFA07A7D
:1013E00003252D03002823D0207800F07BFE2289DE
:1013F000E188207800F010FE60780028207831D055
:10140000FFF70CFF2078FFF71DFF207801F0A0F810
:101410002078002100F0DCFE2078002100F0A0FE02
:10142000002070BD03214902D7E701218902D4E7DA
:101430006078A1880028207807D000F0ABFE2078E3
:10144000FFF700FF207820211AE000F05BFEA08962
:1014500081B2207800F066FE2078FFF7DFFE20786A
:101460002946DBE7FFF7DAFE2078FFF7EBFE20786E
:1014700001F07EF82078294600F072FE20780021E5
:1014800000F0A6FECCE738B54906490E2824614392
:1014900000250C18783400952CC41C3CE1681846D3
:1014A0008B4203D9401A0091606101E000936561AD
:1014B000A07A002800980BD082B26178207800F0E2
:1014C000C3FD03212078090300F04AFE002038BD47
:1014D00081B2207800F026FEF3E70000F0B50B4C57
:1014E0000B4E0C4F00220171D3B2980005192868E9
:1014F0003040184338432860521C022AF4D380201D
:10150000014302484030C160F0BD0000005C004073
:101510008F8F00008080000070B5CA0906D0490690
:10152000490E282251430A18183203E02822514359
:101530000A1868321078012109030123002807D016
:1015400054789370002C0FD0102100F041FE0DE074
:10155000074C2068074D2840484010214840064964
:1015600008432060937001E000F0FAFD002070BD98
:10157000005C0040BFBF00008080000038B5490615
:10158000490E282400254C43241800952176283440
:101590002CC41C3CE16818468B4203D9401A0091C8
:1015A000606101E000936561A07A002800980BD08B
:1015B00082B26178207800F047FD207800F0A2F830
:1015C00040060CD521890BE082B2A188206901F088
:1015D000B3FC009881B2207800F0ECFD09E0E188CE
:1015E000009882B2206901F0A7FC6178207800F0B1
:1015F00053F82078302100F0EBFD002038BD0000CA
:1016000010B50122827000210171C2608160104614
:1016100000F0FCFC002000F0F9FC002000F0FEFDD2
:10162000002000F0EBFCBF2002490002086000F03F
:10163000EDFC10BD2401002030B50C064906490E12
:10164000282569430818002C01DA183000E06830BA
:1016500099B2002A06D001228272C180190C018140
:10166000002030BD002282728180F9E77047704708
:101670000068704770B515460C46064601F050FCF0
:10168000204600F0B5F82A462146304600F0CEF854
:1016900001F0CAFC70BD0000084B8000084AC01869
:1016A000002907D0012904D101681140054A1143DE
:1016B0000160704701681140034AF8E7005C004090
:1016C0008F8F000080C00000C080000070B50E4603
:1016D000FFF7F6FAFFF786FA05460C463046FFF7A5
:1016E0005AF92A462346FEF709FF0C4605460246EC
:1016F0000B46FFF753F92A462346FFF74FF9FEF74B
:10170000BFFE70BD024980004018006880B270477B
:10171000005C004005490969C00089B20818044905
:10172000401840888005800D70470000405C0040F4
:101730000060004005490969C00089B208180449E1
:101740004018C0888005800D70470000405C004054
:101750000060004005490969C00089B208180449C1
:101760004018C0888005800D70470000405C004034
:101770000060004005490969C00089B208180449A1
:10178000401840888005800D70470000405C004094
:101790000060004010B50848046BC16A406B08182F
:1017A00009D00822054900F00CF804490422103140
:1017B000204600F006F810BD80F7FF1FBE00002095
:1017C000FEE770B500231D460EE0040F0A2C02D27E
:1017D0005E00303401E05E0037348C555C006418E4
:1017E00000015B1C6570DBB29342EED370BD00005C
:1017F00010B50D49CA68D207FCD1CA6893062022E9
:10180000002B00DACA600C6902231C430C6148619A
:101810000869402420430861C8688006FCD5CA6076
:1018200008699843086110BD00200240F0B5114CD2
:10183000E368DB07FCD1E36820259B06002B00DA78
:10184000E560236901263343236100230AE0C618BB
:101850007678C75C3602F619CE52E668B606FCD535
:10186000E5609B1C9342F2D3206940084000206150
:10187000F0BD000000200240FFB5804E83B0307004
:1018800071700598B070F370002401201F4600901D
:101890003046254602232246394601944430FFF75C
:1018A000E5FC009530460223002201950830059999
:1018B000FFF7DCFCF078B1784843FEF79FFC704FEF
:1018C0003860F078B1784843FEF798FC7860F0789B
:1018D000B1784843FEF792FC7060F078B1784843E5
:1018E000FEF78CFCB8600AE0386805557868055545
:1018F000B868055570680555641C3D73E4B2F0780E
:10190000B1784843A042EFD85E4804220570457084
:101910008570C570057145718571C5717168292023
:10192000087071683520487071682B208870716864
:101930003920C87070683C2305717168B020487107
:1019400071683A20887171681E20C871706814210E
:10195000017242721D218172C5723B2101731F21E8
:1019600041731A2181731621C1731B21017408214F
:10197000417483742023C3740175072141750621C6
:101980008175C5753D21017621214176152181762C
:101990000921C1761921017745773E2181772221DE
:1019A000C177C11817240C700A244C7005248C7060
:1019B000CD703F240C7123244C711C248C710B249A
:1019C000CC7111240C724D7240248C722426CE727C
:1019D00018260E730D264E7310268E732C26CE738A
:1019E00041260E7425264E740C268E740E26CE7457
:1019F00036260E754D7542268E752626CE75122614
:101A00000E760F264E7637268E764926CE764326DC
:101A10000E7727264E7713268E773326CE773826F5
:101A20004030067050214170462181702D21C170D7
:101A30002F2101713421417185715121C1714821DA
:101A400001722E214172302181722821C1725221EE
:101A500001734F21417385732A21C17331210174B0
:101A600045748574C5740221017501214175827523
:101A7000C4754C210176437607B0F0BD24000020E8
:101A8000500100208C000020F8B500206946088035
:101A9000AE4CAF4D26462071103679E0AB4800229F
:101AA000183000F0C2F92079A84F80001837385854
:101AB000012100F0A9F920798000385801F02AFBB3
:101AC0000020694608807D22D20003E06B46198819
:101AD000491C1980694609889142F7D300204FE0DC
:101AE0009A4980005431085800F0C7F9002831782D
:101AF00070781AD0FEF714FCF17822792B685143E4
:101B00005B186179CF5CB84207D90020C854F778D8
:101B10006B685743DB19C8542873F37868685343DC
:101B2000C318CF5C012F13D028E0FEF7F9FBF17842
:101B300023792A68594363795718DA5D904202D9AC
:101B4000521CDA551AE06A6801205118585415E001
:101B5000877C012F01D10027A770007E012801D1C9
:101B60000020E0700020C854F778AB68574301208C
:101B7000DA19885400202873687360706079401CFB
:101B80006071F178C0B28142AAD82079401C2071DE
:101B9000B1782279914281D86C4E0027B61D277109
:101BA000B11C0091A4E011280FD054280DD0552865
:101BB0000BD0562809D0572807D0592805D06A6875
:101BC000135C9446012B0AD08FE06A68125C012AEC
:101BD00004D149683278085C1018307085E02B7B9E
:101BE000072B7DD262465279002A07D061462F73B7
:101BF0002031097F3846012911D013E04968095C7A
:101C0000009819546046C07801286BD1607800288C
:101C100068D1504800F0BCFC0120607062E000997F
:101C20004723435461468979012902D1009944230D
:101C300043546146097B012902D10099452343544D
:101C40006046807C012814D1A078002811D1424838
:101C500001780A2901D30A390170C9B2062000F0BF
:101C600017F90120A07002463C4801683A48FFF786
:101C700001FD6868007E012814D1E078002811D1A8
:101C8000354801785A2901D80A310170C9B20620B5
:101C900000F0FEF80120E0700246304801682E484E
:101CA000FFF7E8FC6B684033187B012803D12A7BDF
:101CB00000984B211154D879012803D12A7B009830
:101CC0004E2111545878012803D12A7B00984A21CB
:101CD0001154587B012805D14D212A7B009800E042
:101CE00003E01154287B401C28732079401C20718C
:101CF000164910318A78C87842432079824200D947
:101D000051E7174927712079325C0B5C9A4202D067
:101D10002278521C2270401CC0B220710828F2D3D5
:101D20002078002808D009490822891D0C48FEF7B0
:101D300096FA00F04BF92770277120793754401C30
:101D4000C0B220710828F8D3F8BD000014000020AC
:101D5000500100209C3400088000002098340008C6
:101D60008C0000207047000030B583780121027894
:101D7000002B15D094080E4BA400E418236892079A
:101D8000D50EFF22AA40934342789207120EAA4032
:101D90001A4322600078C006C00E8140054804E066
:101DA000D006C00E814003488030016030BD000085
:101DB00000E400E000E100E0064B521C5208C918A4
:101DC000002A05D00B880380801C891C521EF9D183
:101DD0007047000000600040704770B502790468E9
:101DE0005307DB0E9940D20892002032A5580F26E7
:101DF0009E40B543A55003680079C008800020309C
:101E00001A580A431A5070BD30B502681368047935
:101E100065000324AC40A343136002681368007993
:101E2000400081400B43136030BDF0B517460D46AE
:101E30000646002406E0A00030583946FFF7E4FFCC
:101E4000641CE4B2AC42F6D3F0BD037901229A409F
:101E500000680029818802D0114381807047914336
:101E6000FBE710B50368DA6800790324400084407A
:101E7000A24381401143D96010BD01460A68002089
:101E8000128A0B79012199400A4200D00120704743
:101E900070B50C4601F048F9050021D0642C1FD81C
:101EA0001048611E00880A224118514300198EB261
:101EB000642803D90C49284601F02CFA7D203146CC
:101EC000C000FFF703FC04463046FEF7F9FE21464A
:101ED00001F036FAFEF7B0FE81B2284601F01AFA98
:101EE00070BD00009C000020E7030000044A0029A8
:101EF000D16901D0014300E08143D1617047000006
:101F00000010024004490A6B80239A430A630A6B5B
:101F100002430A637047000000100240F0B5224CF3
:101F2000072800D0207022781F4D0626052104279F
:101F30001E48130001F04EF806040D12171F280B5F
:101F40006868002801D02170F0BD00F031F82670DB
:101F5000F0BD00F02DF82770012022E00220607013
:101F600003202070F0BD6078401E6070607800280B
:101F7000F8D12770F0BD0268102392B21A430260B4
:101F800021700A206070F0BD6178491E617061782F
:101F90000029F8D10168102289B2914301602670AE
:101FA00000206860F0BD0000D8000020405C0040C8
:101FB00004480168042289B291430160BF210902EB
:101FC00001607047405C00407047000010B5084C4D
:101FD00020780028FDD007488078032806D1082201
:101FE0000549044800F069FC0020207010BD000085
:101FF00082000020600100208C000020C0080249FF
:10200000C000086170470000405C00400149086062
:1020100070470000405C004030B54C08084964003F
:102020000B69C0009BB21D18064B5208ED182C809E
:102030000969520089B20818C018828030BD0000BA
:10204000405C004000600040F0B5244BC500002912
:102050000DD001290AD1186980B241192048091808
:102060004A80196989B249190818C280F0BD1B4815
:1020700000691B4980B24019891C46185009411E4D
:102080008C465308591C3E2A09D90446D70601D16B
:102090006446A4B2A4020127FF033C4304E01C46AB
:1020A000D70700D00C46A40234800C4C2469A4B29B
:1020B00064190B4DAD1D64193E2A08D9D10601D112
:1020C000604680B280020121C903084303E0D007C3
:1020D00000D00B4698022080F0BD0000405C00401C
:1020E000006000408100044809180868034A104055
:1020F000034A104308607047005C00408F8F000067
:1021000080810000054A49081269490092B2C00066
:102110001018034A8018818070470000405C00401E
:10212000006000400C4A1269C00092B210180B4ABD
:1021300082183E2909D94809C90601D1401E80B23A
:1021400080020121C903084304E04808C90700D000
:10215000401C800210807047405C004006600040D8
:102160008200094812181068084B1840CB0402D5A9
:1021700001231B035840890402D50121490348402B
:102180000349084310607047005C00408FBF0000A7
:1021900080800000054A49081269490092B2C000D7
:1021A0001018034A8018018070470000405C00400E
:1021B00000600040044A1269C00092B21018034A3D
:1021C0008018418070470000405C00400060004083
:1021D0008200084812181068074B1840CB0601D53A
:1021E00010235840890601D520214840034908435F
:1021F00010607047005C0040BF8F000080800000CE
:102200008200044812181068034B184008431060FD
:1022100070470000005C00408F8900000149486061
:1022200070470000405C004030B502689368047954
:1022300065000324AC40A34393600268936800796F
:10224000400081400B43936030BD00001CB500216D
:10225000224801910091026801231B041A43026085
:102260005B000522120304681C400094019C641C5E
:102270000194009C002C02D1019C9442F3D102688D
:10228000920328D501210091154A1121116041685E
:1022900041604168416041687F22D20391434160BF
:1022A00041681122120411434160016801221206A3
:1022B0001143016001688901FCD5416889088900E2
:1022C0004160416802221143416041680907890F5A
:1022D0000229FAD11CBD00911CBD00000010024073
:1022E0000020024005480168082289B211430160BC
:1022F0000168042289B2114301607047405C0040CC
:1023000010B500200A4A01230C21414389180C7A98
:10231000002C08D08C88641E2404240C8C8002D1EC
:10232000CC888C804B72401C0F28EDDB10BD000068
:102330002802002010B514480168012211430160F1
:102340004168124A114041600168114A1140016020
:102350000168012292049143016041683F22120406
:1023600091434160C16A09090901C162016BFF2201
:10237000543291430163416B490849004163002194
:102380008160FFF763FF10BD001002400CB8FF082A
:10239000FFFFF6FE70B50B460E4A00210C244C439D
:1023A0001459002C03D0491C0F29F7DBFEE70C243D
:1023B000614301258C182572002565725350064D26
:1023C00001462868FDF7ACFFE080A0806868401CEB
:1023D000686070BD280200209400002070B50400E1
:1023E00062B61FD01048002530C0B4210F48FDF759
:1023F00095FF00F013FE2146FDF792FF0C49401EA9
:1024000088420BD80B4948610B480722C3691B025D
:102410001B0A4C042343C3618D610A6101200749F3
:10242000C007086070BD0000940000202802002052
:10243000FFFFFF0000E000E004ED00E000E100E04D
:1024400070B50024074D26460C2161434819427A95
:10245000002A02D0467268588047641C0F2CF3DBB8
:1024600070BD000028020020F0B501246404092793
:102470006500A600FF06304A036800292DD0BB4244
:1024800002D15169214351612C4903688B4202D129
:102490005169294351612A4903688B4202D151692C
:1024A00031435161274903688B4204D151690123AB
:1024B0001B0519435161244903688B4203D15169BB
:1024C0005B021943516101682048814204D150697F
:1024D0000121890508435061F0BDBB4202D1516919
:1024E000A1435161154903688B4202D15169A94347
:1024F0005161134903688B4202D15169B143516163
:10250000104903688B4204D15369012109058B43AB
:1025100053610D4903688B4203D1536949028B43D0
:102520005361016809488142D6D151690120800573
:1025300081435161F0BD00000010024000040048DA
:1025400000080048000C0048001000480014004833
:102550008100044809180868034A1040034A1043E0
:1025600008607047005C00408F8F000080C0000052
:102570008100044809180868034A1040034A1043C0
:1025800008607047005C00408F8F0000C080000032
:102590000268918A037901209840414091827047F6
:1025A00010B5B822125852689047002010BD10B5DF
:1025B000134600240A462146FEF765FF204610BD5B
:1025C00010B5134600240A462146FEF7D7FF2046E1
:1025D00010BD10B50021FEF79FFF10BD10B50346DA
:1025E00080339A605A6003234370134600240A46DE
:1025F0002146FEF748FF204610BD10B500240521F6
:102600004170234622462146FEF73DFF204610BD7D
:1026100010B58263022342634370134600240A46C6
:102620002146FEF7ABFF204610BD10B50024042163
:102630004170234622462146FEF7A0FF204610BDEA
:10264000F8B5074680370446002907D0B86B4269C1
:10265000002A46D0A078032841D042E02546607881
:102660001835022802D004282ED03AE0E968E8693B
:102670000091884207D9401AE86182B22046296950
:10268000FFF79EFF2DE0286A0646FDF749FE002968
:102690000DD1009886420AD3686A864207D200228A
:1026A00011462046FFF78CFF0020686219E0B86BE6
:1026B000C168002904D0A078032801D120468847AA
:1026C0002046FFF79AFF0CE0074D2868002808D045
:1026D000C1B22046FEF702FF0020286001E020463C
:1026E00090470020F8BD00004C01002010B50246C4
:1026F00080320446002907D0906B8269002A27D0D7
:10270000A078032822D023E020466178683003298E
:102710001ED1C369C1688B420BD9591AC161C26805
:10272000914200D311468AB201692046FFF73FFF6C
:102730000EE0906B0169002904D0A078032801D134
:10274000204688472046FFF770FF01E0204690476B
:10275000002010BDF8B5044648880E46010A2546FB
:1027600080350B0000F036FC044B0310184B296C2D
:10277000207B0A68694690470146F08840282DD1A1
:1027800008206A46108032E0A96B207B0A6A6946FD
:1027900090470146686421E0C0B2030000F01AFCD3
:1027A0000604080C1014182F296C207B4A6812E0CC
:1027B000296C207B8A680EE0296C207BCA680AE0BD
:1027C000296C207B0A6906E0296C207B4A6902E0BB
:1027D000296C207B8A6969469047014668460088D3
:1027E00000280BD0F288002A08D0824201D968461E
:1027F0000288684602802046FFF70AFFF8BD20469F
:102800000021FEF789FEF8BD70B5002300281CD01A
:102810000446002502E06D1CEDB2641C2678002EF3
:10282000F9D16C00A41C1480CC5403225B1CCA5444
:1028300000245B1C06E0CA545B1CDAB28C54521CA8
:10284000D3B2401C0278002AF5D170BD012902D113
:10285000024901200870002070470000820000201B
:102860000020704710B504468121FEF729FD0121A3
:102870002046FEF725FD002010BD00207047000017
:102880002220088000487047B635000810B5FF23A5
:102890000446513300228121FEF7CEFEFF2361332F
:1028A000002201212046FEF7C7FE032308228121D2
:1028B0002046FEF768FD002010BD10B58378032B7D
:1028C00004D113460A468121FEF758FE002010BDB0
:1028D00070B500250E7860242640274C2A462B46EA
:1028E00024D0202E46D14A78921E130000F072FBAD
:1028F0000A11091A1A1A1A1A150D061A8878606030
:1029000038E01D490122091D2CE04888000AA0601A
:1029100030E019490122083124E02A461749FFF71F
:102920005DFE27E0FFF755FE022070BD4D78062DB5
:1029300004D00A2D19D00B2D1CD119E04C88240A83
:10294000222C02D0212C06D00BE0CA88362A00D9CE
:1029500036220B4B05E00A4BCA88103B092A00D9E6
:1029600009221946FFF754FE04E001220249F9E763
:1029700088782060002070BD18010020DC02002053
:10298000D8350008F8B51E4615460F46044600F037
:102990003BFA29462246B832C2C225468035FEF7A8
:1029A000F9FE2046FEF72CFEE86B006880472046C3
:1029B00000F020FA2046FEF779FCF8BD027C0A7090
:1029C000427C4A70C37C827C1B02D2184A80437DC1
:1029D000027D1B02D2188A80C37D827D1B02D21821
:1029E00092B2CA800121C2634170704710B50022C3
:1029F000044640231146FEF71FFE8023002219469D
:102A00002046FEF719FE0023402219462046FEF715
:102A1000BAFC0023402280212046FEF7B4FC0120AE
:102A2000A070207B8034E16B49688847002010BD8E
:102A300010B504468030C06B00698047E078A07014
:102A4000002010BD10B5B8210958C969002900D06F
:102A50008847002010BD10B5024680321446926BA4
:102A600012689047E06B80688047002010BD00002E
:102A700070B58978164D04462970012904D920467D
:102A80000021FEF749FD70BDA078022813D003286D
:102A9000F5D1002915D02078884208D0014620467B
:102AA000FFF77EFD297821702046FFF7D4FF2046EE
:102AB000FFF7BBFD70BD0029F9D021700320A07085
:102AC000F2E70220A07021702046FFF769FDEEE7D3
:102AD000480100201CB504466946FFF76FFF6846B1
:102AE0000178C806C00E0AD001280DD0022810D0E7
:102AF000C909C9012046FEF70FFD00201CBD69462B
:102B0000204600F00BF8F8E76946204600F0E6F8AA
:102B1000F3E76946204600F07BF8EEE7FEB50022B9
:102B200000924F78164602460124022580323B006F
:102B300000F050FA0A3656474B4709064727244704
:102B4000FFF708FE5FE006468888002814D1C88891
:102B5000002811D188784706B0787F0E03280BD063
:102B60002A48377147603046FFF75FFD002F01D0DC
:102B7000B57048E0B47046E0304622E0FFF778FFD9
:102B800041E00196C98801291BD18178022902D030
:102B9000032916D101E001220FE0012201460DE0D8
:102BA00001968178022901D003290AD10194816814
:102BB000002901D003210191022201A9FFF728FD7C
:102BC00021E00021FEF7A8FC1DE005464888012809
:102BD00019D1AC60906B826828469047284610E077
:102BE00004468078022803D0032801D02046E8E775
:102BF0004888012807D1A660906B826820469047DC
:102C00002046FFF712FD0098FEBD0000480100209D
:102C1000F8B5044600200D4607460090687809790B
:102C2000002835D026468036012819D0032853D1F4
:102C3000A07802283CD003280DD101E020460CE00A
:102C4000688800281BD1002919D0802917D0204678
:102C5000FEF762FC13E020460021FEF75DFC3BE03E
:102C6000A078022824D00328F5D16888002806D14E
:102C7000002904D0802902D02046FEF760FBB06B0B
:102C800029468268204690472046FFF7CEFC23E085
:102C9000A07802280CD00328DDD1CA090120002A1F
:102CA0000BD04906490E282251430919897E0BE0B1
:102CB000002911D08029C1D10EE00A0607D42822AC
:102CC000514309196031897A002900D0009002220D
:102CD00069462046FFF79CFC3846F8BD70B50446AF
:102CE000807800250E4603280FD1307901280CD8B2
:102CF000B8200059826820469047F188054629434C
:102D000007D12046FFF791FC03E020460021FEF7A3
:102D100003FC284670BD10B58178C1700421817014
:102D20008030C06BC0688047002010BD10B50A46D7
:102D3000024903A0FFF768FD004810BDF60200201D
:102D400048494420436F6E66696700007047000081
:102D50001220088000487047A4350008704770476B
:102D60007047704710B50A46024903A0FFF74CFDB3
:102D7000004810BDF602002048494420496E7465A1
:102D80007266616365000000042008800048704797
:102D9000A035000810B50A46024903A0FFF734FD2C
:102DA000004810BDF60200204E505020AB436F6E1D
:102DB000746163746D6F64756C65BB204C74642EB4
:102DC0000000000010B50A46024903A0FFF71CFDF1
:102DD000004810BDF6020020555342204B65796231
:102DE0006F617264000000001A200880004870477C
:102DF000BC00002008B51F21684601700121417008
:102E00008170FEF7B1FF08BD10B50121C805FFF7BD
:102E10006DF88020FFF776F80121C806FFF766F805
:102E200001204007FEF7ACF80120FEF791F80120E1
:102E3000FEF79AF810BD10B500F002F810BD0000C2
:102E4000F8B50021684601802B4D69680180008833
:102E50002A4C21680840C00B01D0FEF79DF8684657
:102E600000882188264E0840400509D5254868601D
:102E7000306801692448884700212348FEF72EFB6B
:102E80006846018820680140890401D51F496960AE
:102E9000694609880140C80408D51D486860306843
:102EA0008169194888470020FFF738F8684600888C
:102EB00021880840000507D51648686030684169D8
:102EC00011488847FFF70EFA6846008821880840B5
:102ED000800505D5104868603068C1680A48884791
:102EE0006846008821880840C00504D50B48686002
:102EF0000720FFF713F8F8BD405C004024010020D4
:102F000044010020FFFB000060010020FFDF000003
:102F1000FFEF0000FFF70000FFFD0000FFFE0000D4
:102F200003480249416003494160704723016745F6
:102F300000200240AB89EFCD084B521C10B552085F
:102F4000C918002A08D0437804781B0223430B8059
:102F5000801C891C521EF6D110BD0000006000408C
:102F60000249014808607047AAAA000000300040EA
:102F7000F8B51449124E48437D21C900FDF7D0F938
:102F800000240746042501E06D00641C29463846EC
:102F9000FDF7C6F9B042F7D829463846FDF7C0F923
:102FA000FF2101318D4201D9072430460749064AE5
:102FB0000A604C6088605000086005480860F8BDF1
:102FC000FF0F0000409C00005555000000300040FD
:102FD000CCCC000030B47446641E2578641CAB422F
:102FE00000D21D46635D5B00E31830BC184700004B
:102FF00010B50848012140680004400F420703D57E
:103000008007800F0221814003480068FDF788F99E
:1030100010BD0000001002400000002001480068C0
:10302000704700000000002002480169802211431F
:1030300001617047002002401CB500200090012271
:103040000190022311462848FEF710F9274800F0A6
:1030500061F82748FEF70CFB234C083C25466060CE
:103060002870062000F06CF82878642801D96420C4
:103070002870C1B20620FEF70BFF62B606230F22AE
:1030800028210A20FEF7F8FB7D20C000FFF7A6F9F3
:10309000184B194A19491A48FFF774FC9620FFF794
:1030A00067FF18496420FFF775F917490A20FFF7F1
:1030B00071F90126124DFFF7C3F9A0780028A8780E
:1030C00003D0032803D16670F5E70328F3D06078B6
:1030D0000028F0D0BFF34F8F0D490C48C860BFF3F4
:1030E0004F8F00BFFDE70000880000209C340008DF
:1030F000FC3B0008E0000020F4000020A0000020BD
:1031000060010020891A0008612F00080400FA05F8
:1031100000ED00E0017900680A07120F01219140DB
:103120000904816170470000072801DB0020704717
:10313000242148430149401870470000A434000886
:1031400010B5FFF7F1FF040004D000F09FF820460F
:1031500000F001F810BDF8B504461830012105460D
:10316000FFF782F902212846FEF74EFE032128468A
:10317000FFF75AF800212846FEF773FE0021284683
:10318000FEF763FE217D2846FEF727FE20680188B2
:10319000490849000180204666687021602220307D
:1031A0000125012E08D00B021702022E1AD0032E81
:1031B0003AD0042E2DD14FE023681E8B8E431E8300
:1031C00021680B8B13430B830178022000292168AF
:1031D0000A8C05D082430A842068018C294317E0B9
:1031E0000243F8E721680A8B9A430A8321680A8B15
:1031F0003A430A8301782020002921680A8C05D0EF
:1032000082430A842068018C10223AE00243F8E7E6
:1032100001840021204600F07DF820688582206826
:10322000018829430180F8BD23689E8B8E439E83CD
:1032300021688B8B13438B83017801204002002986
:1032400021680A8C06D082430A842068018CFF2200
:10325000013216E00243F7E721688A8B9A438A839A
:1032600021688A8B3A438A83017801204003002930
:1032700021680A8C07D082430A842068018C0122CD
:1032800012031143C4E70243F6E70000F8B5044611
:10329000FFF7AEFE21690A68E3681A430A602268F4
:1032A0001949D1621949FDF73BF82168401E08858C
:1032B00020680188012211430180207A002805D06E
:1032C000206840308188D2031143818000247D260C
:1032D000F6000A20604385B229463046FEF7F6F92B
:1032E00007462846FDF7ECFC394600F029F8FDF7C3
:1032F000A3FC0004000C04D1641CA4B2B442E8D3C3
:10330000012403480480F8BDE703000000093D00E4
:103310009C0000204268012A08D0022A09D0032A12
:103320000AD0042A01D10068016470470068416333
:1033300070470068816370470068C1637047000090
:1033400070B5420064414B005C41120E39D01B0E37
:1033500038D0FF2A3CD0FF2B3AD040024902400A25
:10336000490A060045184E43000A090AD218484384
:10337000ED017F3A0104731A4019190C4318990F93
:1033800004D001215B0849075B1A521CD80904D3F9
:10339000401CF50301D19D0607D0FF2A08D2D505B0
:1033A00006D0E4072043401970BD0125A843F4E787
:1033B000002A01DCE00770BD2402FF202043C00585
:1033C00070BD1B0EFF2A03D0FF2B01D0E00770BD9C
:1033D000FF2645003606B54206D84D00B54203D853
:1033E000D218FF2A00D0E7E7004870BD0000C07F78
:1033F000000000480A00000000000048090000002A
:103400000000004808000000000400480F00000011
:10341000000400480E000000000400480D000000F9
:10342000000400480B0000000000004803000000FA
:1034300000000048040000000000004805000000F3
:1034400000000048060000000000004807000000DF
:1034500000040048000000000004004801000000D3
:103460000004004802000000000000480F000000B7
:1034700000040048030000000004004804000000AD
:103480000004004805000000000400480600000099
:103490000004004807000000FC3B0008000400484E
:1034A0000C000000000400400100000000000000CB
:1034B000020000001C100240010000000000004853
:1034C00006000000010000000004004001000000B0
:1034D00000000000020000001C100240010000007B
:1034E000000400480400000000000000004001400B
:1034F000020000000100000000000100181002405E
:1035000001000000000400480F000000010000005E
:103510000040014001000000000000000000010028
:103520001810024002000000000400480E000000D5
:103530000000000000040040040000000000000043
:10354000020000001C1002400100000000040048BE
:103550000100000000000000000000400200000028
:1035600000000000010000001C10024002000000EA
:1035700000040048030000000100000000000040BB
:103580000200000000000000010000001C100240CA
:1035900002000000000000480100000001000000DF
:1035A0000403090412011001000000404720010437
:1035B000000001020001090222000101008020092F
:1035C000040000010301010009211101000122365C
:1035D000000705810308000A05010906A101050786
:1035E00019E029E71500250175019503910295055C
:1035F0009101050719E029E79508810275089501F1
:1036000081011900299126FF0095068100C0808064
:103610007F7E7D7C7B7A797877767675747372712C
:1036200071706F6E6E6D6C6C6B6A6A6968686766E4
:1036300066656464636362616160605F5F5E5E5D76
:103640005D5C5C5B5B5A5A595958585757565655EA
:1036500055555454535352525251515050504F4F4C
:103660004F4E4E4D4D4D4C4C4C4B4B4B4A4A4A499C
:1036700049494848484747474746464645454544DF
:103680004444444343434342424242414141000097
:10369000B03600080000002050010000F80E0008BD
:1036A0006C370008500100204808000004010008A1
:1036B00011846CDC020009100102030406070809EA
:1036C000450A500F0613F0331B08F8041112341B7F
:1036D0000808041A10041A18041A20041A28041AD4
:1036E00030041A38041A40041A48041A50041A58AC
:1036F000041A60041A68041A70041A78041A800400
:103700001A88041A9004121452011A9C0C01141302
:10371000512D1B0889041A95041AC5041AE9041AC4
:103720002D041A650403221A031A63281A5D041A69
:103730004D041A61041A5F041B8D284019041AD124
:1037400004411A7B081A4D045A61105A8108C113AA
:10375000ED261B08410413D52A1B08450413ED2947
:0C3760001B08174C1A310C1328018220A2
:040000050800018965
:00000001FF
