:020000040800F2
:1000000018040020D50000082F0200082D02000867
:1000100000000000000000000000000000000000E0
:10002000000000000000000000000000770200084F
:10003000000000000000000075020008D102000866
:10004000E7000008E7000008E7000008E7000008F4
:10005000E7000008D5010008E7000008E7000008F5
:10006000E700000869010008E7000008E700000851
:1000700015010008E7000008E7000008E700000895
:10008000E7000008E7000008E7000008E7000008B4
:10009000E7000008E7000008E7000008E7000008A4
:1000A000E7000008E7000008E7000008E700000894
:1000B000E7000008E7000008E7000008E700000884
:1000C0000348854600F014F800480047C1030008C3
:1000D000180400200448804704480047FEE7FEE774
:1000E000FEE7FEE7FEE7FEE73D030008C10000086B
:1000F000064C0125064E05E0E36807CC2B430C3C7B
:1001000098471034B442F7D3FFF7DEFF50050008DC
:100110007005000810480168CA060421002A16DA92
:100120000E4A83159361CB05936103681022134334
:100130000360836813438360094882685208520051
:100140008260C16081680122114381607047054867
:1001500002880A43028070470024014000080048DA
:10016000000002400000002010B51648016801227E
:1001700089070223002914DA8168914381600421F0
:10018000C16084681443846042681A4342600E4828
:100190004269CB015A4042610C4882680A4382603E
:1001A00010BD01680C070A4907D50B8813430B8063
:1001B000416808221143416010BD08881843088037
:1001C00010BD00000000024000080048002401406B
:1001D0000000002010B510484169C90716D04169D8
:1001E0000122114341610D4988680D4A43070D48BA
:1001F0008B6806D5102423438B6082614915816189
:1002000010BD042423438B60826210BD0648018820
:1002100008221143018010BD000401400024014068
:10022000000100000008004800000020FEE77047C1
:100230008307FF22DB0E9A408907090E99400028A8
:100240000BDA0007000F0838830808489B001818CD
:10025000C36993430B43C3617047830804489B0001
:100260001B181868904308431860704700ED00E0C1
:1002700000E400E0704770471349112008601348FC
:10028000416841604168416041687B22D2039143EB
:10029000416041680522D204114341600168012296
:1002A00012061143016001688901FCD54168890883
:1002B0008900416041680222114341604168090799
:1002C000890F0229FAD17047002002400010024035
:1002D00030B51848FF2442681749521E6423013480
:1002E0004260521C10D105886200002D1BD0058889
:1002F000FF2D09D005886D006D1E45807D252D01DF
:10030000456083608C618A624288002A0AD08568D1
:100310006D1E85606D1C05D14D6965404D61521E95
:100320008360428030BD4D6955404D617D22D200D1
:100330004260E9E7000000200008004810B51448BA
:1003400001680122114301604168124A1140416075
:100350000168114A11400160016801229204914331
:10036000016041683F22120491434160C16A09095A
:100370000901C162016B094A11400163416B4908DF
:100380004900416300218160FFF776FF10BD000046
:10039000001002400CB8FF08FFFFF6FE2CFEFCFF29
:1003A00002E008C8121F08C1002AFAD1704770473E
:1003B000002001E001C1121F002AFBD1704700009C
:1003C000564D68690121C90408436861544C20688E
:1003D0000F21090488430521090440182060686939
:1003E000A101084368614F480126066086604E4FB0
:1003F0002020386031460520FFF71AFFA8696915EB
:100400000843A861686B30436863686B8007FCD55C
:1004100046488168C90703D081684908490081605E
:1004200081680122D2071143816081680029FCDBC9
:10043000696907225204114369610922D2061368CF
:100440000C210B4313603A4A13680B431360216875
:100450000322114321608168314381600168C9072B
:10046000F9D00446C068012149030843E0603148DF
:10047000A0626069072108436061102060602E4817
:100480008168012292051143816080143860002147
:100490000C20FFF7CDFE686930436861E0683043A7
:1004A000E060224925484031016125494161042528
:1004B000C5608168234A114381608168314381604E
:1004C0004015386000210920FFF7B2FEA0682843DC
:1004D000A0601B480C3800E030BF01880229FBD324
:1004E000A068400703D5A06810210843A060A06859
:1004F000C006FCD4A06802210843A060A068C00721
:10050000FCD1124C104860610321081FFFF790FED8
:100510000020A06107202061FEE7000000100240DB
:10052000000800480004014000E100E00024014010
:1005300000040048020602000027014000000240BB
:100540000C0000208A0500007FBB000000E000E0F6
:10055000700500080000002014000000A00300083F
:10056000840500081400002004040000B003000803
:1005700000000000E803000064000000000000002C
:040580000000000077
:04000005080000C12E
:00000001FF
