:020000040800F2
:1000000018040020D5000008FB010008F9010008D1
:1000100000000000000000000000000000000000E0
:100020000000000000000000000000004302000883
:100030000000000000000000410200089D020008CE
:10004000E7000008E7000008E7000008E7000008F4
:10005000E700000895010008E7000008E700000835
:10006000E7000008E7000008E7000008E7000008D4
:1000700015010008E7000008E7000008E700000895
:10008000E7000008E7000008E7000008E7000008B4
:10009000E7000008E7000008E7000008E7000008A4
:1000A000E7000008E7000008E7000008E700000894
:1000B000E7000008E7000008E7000008E700000884
:1000C0000348854600F014F8004800478D030008F7
:1000D000180400200448804704480047FEE7FEE774
:1000E000FEE7FEE7FEE7FEE709030008C10000089F
:1000F000064C0125064E05E0E36807CC2B430C3C7B
:1001000098471034B442F7D3FFF7DEFF0C05000820
:100110002C050008F0B51B480168C9064A0F1A49AA
:1001200010D002681A4CD306184A10D58115916177
:10013000946201681C2211430160816810221143FE
:100140008160F0BD0888012210430880F0BD03687B
:100150005B0709D50B4B40331D68CB680A4F5E0027
:100160001037BD535B1CCB6003681B07EED50368DB
:1001700008252B4303600020C8605069604050612F
:10018000F0BD0000002401400000002000080048ED
:100190000002000030B513484169CA0712491CD05B
:1001A000426901231A43426110488268104B540788
:1001B000104A07D58168102421438160936140155E
:1001C000906130BDC56804246540C5600025CD60E0
:1001D000816821438160936230BD08880222104308
:1001E000088030BD000401400000002000240140D0
:1001F0000001000000080048FEE770478307FF2267
:10020000DB0E9A408907090E994000280BDA000797
:10021000000F0838830808489B001818C3699343E7
:100220000B43C3617047830804489B001B18186880
:10023000904308431860704700ED00E000E400E0E0
:1002400070477047134911200860134841684160A6
:100250004168416041687B22D2039143416041681B
:100260000522D204114341600168012212061143A4
:10027000016001688901FCD54168890889004160F5
:10028000416802221143416041680907890F022930
:10029000FAD17047002002400010024030B51848E3
:1002A000FF2442681749521EC82301344260521C81
:1002B00010D105886200002D1BD00588FF2D09D0C4
:1002C00005886D006D1E45807D252D01456083608C
:1002D0008C618A624288002A0AD085686D1E85601A
:1002E0006D1C05D14D6965404D61521E8360428091
:1002F00030BD4D6955404D617D22D2004260E9E735
:10030000000000200008004810B5144801680122D0
:10031000114301604168124A114041600168114A6D
:10032000114001600168012292049143016041681B
:100330003F22120491434160C16A09090901C16267
:10034000016B094A11400163416B4908490041634F
:1003500000218160FFF776FF10BD00000010024011
:100360000CB8FF08FFFFF6FE2CFEFCFF02E008C8F9
:10037000121F08C1002AFAD170477047002001E01F
:1003800001C1121F002AFBD170470000504D68695F
:100390000121C904084368614E4F38680F210904E0
:1003A000884305210904401838606869B901084389
:1003B0006861494801260660866048492020086037
:1003C00031460520FFF71AFFA86969150843A8619F
:1003D000686B30436863686B8007FCD5404CA0684D
:1003E000C00703D0A06840084000A060A0680121B9
:1003F000C9070843A060A0680028FCDB68690721E2
:100400004904084368610921C9060A680C200243AF
:100410000A6034490A6802430A60386803210843C5
:100420003860A0683043A0602068C007F9D0E06859
:100430002D490843E0602D48A062606907273843D2
:1004400060611C2060602A48816801229205114386
:10045000816081142148016000210C20FFF7CEFE4D
:10046000A869012109040843A861224841682022A3
:1004700011434160204981622049C16201683143D2
:1004800001601F480025C560A16804221143A160D6
:1004900000E030BF01880029FBD0A068400703D5E9
:1004A000A06810210843A060A068C006FCD4A06822
:1004B00002210843A060A068C007FCD1124C11487B
:1004C00060610321081FFFF799FEA5612761FEE720
:1004D00000100240000800480004014000E100E074
:1004E0000024014000040048042500000206020028
:1004F0000027014000400140BF03000050C300003E
:10050000000000207FBB000000E000E02C05000898
:1005100000000020180000006C03000844050008DB
:1005200018000020000400007C0300080000000008
:10053000E8030000C8000000000000000000000008
:0405400000000000B7
:04000005080000C12E
:00000001FF
